:020000040800F2
:10000000A0800120610200082F4D0008E343000892
:100010002D4D0008D51400081164000800000000F0
:10002000000000000000000000000000A101000826
:10003000B915000800000000FD010008B15A0008D1
:100040007B0200087B0200087B0200087B0200089C
:100050007B0200087B0200087B0200087B0200088C
:100060007B0200087B0200087B0200087B0200087C
:10007000D9140008E51400087B0200087B02000880
:10008000F11400087B0200087B0200087B020008D4
:100090007B0200087B0200087B0200087B0200084C
:1000A0007B0200087B0200087B0200087B0200083C
:1000B0007B0200087B020008795B00087B020008D5
:1000C0007B0200087B0200087B0200087B0200081C
:1000D0007B0200087B020008ED630008F96300085A
:1000E0007B0200087B0200087B0200087B020008FC
:1000F0007B0200087B0200087B0200087B020008EC
:100100007B020008FD4D00087B0200087B0200080E
:10011000A55F00087B020008855B00087B020008E1
:100120007B020008FD1400087B0200080915000886
:100130007B0200087B0200087B0200087B020008AB
:100140007B0200087B0200087B0200087B0200089B
:100150007B0200087B0200087B020008056400089F
:100160007B0200087B0200087B0200087B0200087B
:100170007B0200087B0200087B02000800000000F0
:100180007B0200087B020008DFF810D000F010FFAF
:1001900000480047219F0208AFF30080A0800120A3
:1001A0002C4B19680868B0E8F04F80F30988BFF35A
:1001B0006F8F4FF0000080F311887047000000003F
:1001C00008480068006880F308884FF0000080F35A
:1001D000148862B661B6BFF34F8FBFF36F8F00DF35
:1001E00000BF00BF08ED00E0DFF80C00016841F43B
:1001F00070010160704700BF88ED00E0EFF30980F7
:10020000BFF36F8F134B1A681EF0100F08BF20ED5D
:10021000108A20E9F04F106009B44FF0500080F3CD
:100220001188BFF34F8FBFF36F8F33F095FC4FF002
:10023000000080F3118809BC19680868B0E8F04F25
:100240001EF0100F08BFB0EC108A80F30988BFF3CE
:100250006F8F704728000020EFF305807047000083
:100260000648804706480047FEE7FEE7FEE7FEE750
:10027000FEE7FEE7FEE7FEE7FEE7FEE7695B000854
:10028000890100082DE9F05F0546002092469B4653
:1002900088460646814640241BE02846414647469C
:1002A000224600F0C6FC53465A46C01A914110D36C
:1002B00011461846224600F0ADFC2D1A67EB0108E6
:1002C0004F4622460120002100F0A4FC17EB000954
:1002D0004E41201EA4F10104DFDC484631462A4687
:1002E0004346BDE8F09FA0F14101192900D8203014
:1002F000704710B5431A934209D28318881803E057
:1003000010F8011D03F8011D521EF9D210BD40EA7C
:1003100001039B0703D009E008C9121F08C0042A83
:10032000FAD203E011F8013B00F8013B521EF9D26A
:1003300010BDD2B201E000F8012B491EFBD270477C
:100340000022F6E710B513460A4604461946FFF7A1
:10035000F0FF204610BD30B505462A460B4612F880
:10036000010B13F8014B08B1A042F8D01CB10028D2
:1003700002D06D1CF1E7284630BDCAB2401E10F80D
:10038000011F8A4202D00029F9D100207047421C87
:1003900010F8011B0029FBD1801A704710B500220C
:1003A00000E0521C835C8C5CA34201D1002BF8D18D
:1003B000D8B2E1B2401A10BD034611F8012B00F883
:1003C000012B002AF9D11846704730B505460020A8
:1003D000034600E05B1C934205D2EC5CC85C201A2B
:1003E00001D1002CF6D130BD0FB400B58DB010A9ED
:1003F00009900B9000914FF0FF300A9000200C9074
:1004000005480690054807906A4609A80F9900F02C
:1004100047FC0DB05DF814FBBD0C0008DB0C0008B8
:100420002DE9FF5F1D464FF0FF3BD5E901469146A0
:100430005F464FF00008A9697F1C01988847296A28
:10044000824688470028F6D1BAF1FF3F0CD024F449
:10045000C064002E19DD600614D5BAF12B0F09D047
:10046000BAF12D0F0ED103E0584604B0BDE8F09F5D
:1004700044F48064A9697F1C01988847761E8246EF
:10048000002E02DDBAF1300F03D0B9F1000F26D0F3
:1004900032E0A969761E44F400747F1C01988847F5
:1004A0008246002E05DDBAF1780F06D0BAF1580F5A
:1004B00003D0B9F1000F10D01EE0B9F1000F02D047
:1004C000B9F1100F18D1A969761E24F400747F1CAD
:1004D000019888478246102002E0082000E00A20A8
:1004E000814609E008FB0908A969761E44F40074F6
:1004F0007F1C019888478246002E05DD49465046FC
:1005000000F0B9FB0028EDDAE96901988847A005F9
:1005100002D46FF00100A8E7E00725D1600613D5EB
:10052000600502D5C8F1000000E0404629680A1DB8
:100530002A600968220501D5087015E0220701D557
:10054000088011E008600FE02868011D296000683C
:10055000210502D580F8008006E0210702D5A0F829
:10056000008001E0C0F8008038467EE72DE9FF4FAB
:10057000087883B09946FF2805D0491C2D2804D05F
:100580000024002008E000200BE00124F9E700EB44
:10059000800003EB4000491C0B78FF2BF7D104B11E
:1005A000404200230293147819461D462D2C01D099
:1005B0002B2C04D1521C2D2C13D000240294AA46BB
:1005C0001478FF2C0FD00A25A3FB057801FB0581C9
:1005D0004FF0000C03FB0C11521CE3194AEB010114
:1005E000EEE70124EAE7814453EA010002D019F55D
:1005F000C87F06DA03980021C0E9001107B0BDE802
:10060000F08F0025AE4E2F46DFF8B882184600F076
:100610008FFCCDE90001B9F1000002DAC9F1000454
:1006200000E004460023A74A1AEB030B42EB045AEE
:1006300012E0E00707D02A4633463846414600F02C
:10064000ECF9074688462A4633461046194600F01C
:10065000E4F905460E466410002CEAD1DDE90001FC
:10066000B9F1000F5A46534606DA00F0F2FB3A465B
:10067000434600F0EEFB05E000F0CFF93A46434672
:1006800000F0CBF9029A0AB181F00041039AC2E965
:100690000001B3E72DE9FF4F1F468DB0D7E90146B2
:1006A0004FF0FF382E2045464FF000090B90B969F6
:1006B0006D1C0E988847396A824688470028F6D113
:1006C000BAF1FF3F0AD024F4D064002E11DDBAF154
:1006D0002B0F08D0BAF12D0F0BD102E0404611B01C
:1006E0008DE744F48064B9696D1C0E988847824692
:1006F000761E6946600501D52D2000E02B208DF87F
:10070000000001F1010B0DF1200809E0B9696D1C31
:100710000E98884782460F9844F40074761E056050
:10072000002E02DDBAF1300FF0D00B998A453ED190
:1007300044F0800406E00F99681CA9F1010944F413
:1007400000740860B9696D1C761E0E988847824651
:100750003028F0D02BE00B998A4505D1200603D430
:1007600044F08004761E18E0504605F0F4FF08B30C
:100770000DF11301761E44F400748B4508D2AAF1E2
:1007800030000BF8010B200607D5A9F1010003E0AA
:10079000200602D409F101008146A00502D50F9977
:1007A000681C0860B9696D1C0E9888478246002E47
:1007B000D1DC53E0002E51DDBAF1650F02D0BAF161
:1007C000450F4BD1A00549D5B9696D1C24F440747F
:1007D000761E0E9888478246002E0CDD2B2804D00A
:1007E000BAF12D0F07D144F48074B9696D1C0E98CD
:1007F00088478246761EE00501D52D2100E02B2199
:1008000008F8011BCDF82C8021E00DF12901761E9E
:1008100044F4007488450CD2AAF1300010F0FF00B7
:1008200088F8000002D10B99884509D908F1010820
:1008300006E0E00501D5244801E042F20F70814650
:10084000B9696D1C0E98884782460F980560002E86
:1008500004DD504605F07FFF0028D6D1F9690E98D7
:100860008847FF208BF8000088F8000000200690E1
:1008700007904B466A4608A906A8FFF777FEA00531
:1008800002D46FF001002AE714F0240F0AD0E00729
:1008900014D1DDE906123868031D3B600068C0E929
:1008A00000120BE0DDE9060100F066FB0146E007FF
:1008B00004D13868021D3A600068016028460EE7DE
:1008C000000014400000F03FF1D8FFFF2DE9FE4F7B
:1008D000804681EA0300C00F0C46009021F00041E1
:1008E00023F00045B8EB0200A94105D2404621465D
:1008F00090461C460B46024623F00040104347D06A
:10090000270DC7F30A00C3F30A510290401A019061
:1009100040286BDAC3F3130040F4801B0098924622
:1009200020B10023D2EB030A63EB0B0B019859466D
:10093000C0F14002504600F06DF906460D465046A3
:100940005946019A00F085F910EB08006141002436
:1009500087EA115284EAE7731A4340D0009A62B3DF
:10096000019A012A4FEA075215DC001B61EB0201D4
:100970004FF0004202EA0752CDE90042001C41F567
:10098000801132462B4600F016FA03B0BDE8F08F16
:1009900040462146F9E7001B61EB0201001C41F5CE
:1009A000801300185B412018A2F5001747EB0301E4
:1009B00040EAD570B6196D4111E06D084FEA360670
:1009C00045EAC0754FEA0752001B61EB0201001CAB
:1009D00041F5801149084FEA300000195141324673
:1009E0002B4603B0BDE8F04F00F0D6B900980122C5
:1009F00040000023D0EB020263EBE0730098214635
:100A00004FEAE074B8EB000061EB0401E9E783F022
:100A100000435BE781F0004158E72DE9FE4F81EA92
:100A2000030404F0004421F0004100944FF0000B57
:100A300023F0004350EA01045ED052EA03045BD085
:100A4000C3F30A54C1F30A552C44A4F2F3340194BD
:100A5000A0FB0254C1F3130141F48011C3F313034B
:100A600043F4801301FB024400FB034E840A970AFF
:100A700044EA815447EA8357A4FB076802958D0A2C
:100A800005FB07854FEA932C04FB0C542705029DB8
:100A90004FEA065847EA1637B5EB08056EEB070C28
:100AA000870E920E47EA811742EA8312A7FB0201E2
:100AB000B6EB0B0164EB00042B0D43EA0C335E181C
:100AC00044EB1C50DA465146E7FB0201C5F3130420
:100AD0004FEA0B3343EA14534FEA0432019C43EAD2
:100AE0000603A4F10C040294009CCDE900B400F0CC
:100AF00062F903B0BDE8F08F00200146F9E70EB5BA
:100B000040F2334102910021CDE900110A460B4623
:100B100000F051F903B000BD70B5C1F30A5201F005
:100B200000450024C1F3130140F2FF3341F480116A
:100B30009A4201DA002070BD40F233439A42A2F299
:100B4000334203DC524200F074F800E090402C4342
:100B5000F1D0404270BDC1F30A5210B5C1F3130188
:100B600040F2FF3341F480119A4201DA002010BDB7
:100B700040F233439A42A2F2334203DC524200F085
:100B800058F810BD904010BD30B5041E71F100043E
:100B900004DB4FF00044404264EB0101141E73F18A
:100BA000000405DB1C464FF00043524263EB040394
:100BB0008B4208BF824230BD30B5041E71F1000483
:100BC00004DB4FF00044404264EB0101141E73F15A
:100BD000000405DB1C464FF00043524263EB040364
:100BE000994208BF904230BD30B50B460146002007
:100BF0002022012409E021FA02F59D4205D303FADF
:100C000002F5491B04FA02F52844151EA2F101025F
:100C1000F1DC30BD202A04DB203A00FA02F100208A
:100C200070479140C2F1200320FA03F3194390402A
:100C30007047202A04DB203A21FA02F00021704795
:100C400021FA02F3D040C2F1200291400843194634
:100C50007047202A06DBCB17203A41FA02F043EA1C
:100C6000E07306E041FA02F3D040C2F12002914065
:100C70000843194670473A2800D2303820F0200245
:100C8000412A01D3A2F13700884201D34FF0FF304F
:100C900070470000026811441378016018467047DD
:100CA000D16004495161044911620021116111466A
:100CB00000F096B9950C0008D50F0008426842B1C3
:100CC000016811F8013B23B1521EC0E90012184619
:100CD00070470121C160881E704742685AB1C368DD
:100CE000016843B983688B4205D0491E521CC0E994
:100CF0000012002070474FF0FF3070470FB4002300
:100D000000B589B00CA900910B996FF00042CB603F
:100D10001E4B06931E4B07930423CDE901321D4A57
:100D2000089202466B460020FFF7B4FC09B05DF85C
:100D300014FB70B586B006464FF0FF300091CDE948
:100D40000101002015460C4604903246694604A86D
:100D5000FFF7D4FF02460498211825B108B10846D0
:100D600000E020462860049800280DD0002A02DD0B
:100D70000098884208D0081B0094CDE9010432464F
:100D8000694604A8FFF7BAFF06B070BDBD0C0008A5
:100D9000DB0C0008D50F000810B5141E73F1000419
:100DA00008DA401C41F1000192185B411A4301D15D
:100DB00020F0010010BD2DE9F04D92469B4611B187
:100DC000B1FA81F202E0B0FA80F220329046FFF7E9
:100DD00021FF04460F4640EA0A0041EA0B01534650
:100DE0005A46084313D0114653EA010019D0C8F1FE
:100DF00040025046FFF71DFF05460E465046594635
:100E00004246FFF707FF084305D0012004E02046D3
:100E10003946BDE8F08D0020054346EAE0762C43D4
:100E200037430A986305E40AA0EB08000022FD0A94
:100E300044EA47540A3002D500200146E9E701059B
:100E400010196941DDE9084500196941BDE8F04D17
:100E5000A2E72DE9F04D81EA030404F0004B21F0F4
:100E6000004514464FF0000A23F0004150EA050205
:100E700020D054EA01021DD0C5F30A570246C5F33B
:100E80001303C1F31300C1F30A5640F4801543F471
:100E90008013A7EB0608101BD64608F2FD3873EB4B
:100EA000050002D308F1010801E092185B41B8F196
:100EB000000F03DA00200146BDE8F08D00204FF45A
:100EC0008011064684460EE0171B73EB050705D319
:100ED000121B63EB050306434CEA010C49084FEA79
:100EE000300092185B4150EA0107EDD152EA03004D
:100EF00012D082EA040083EA0501084305D0101BE2
:100F0000AB4106D20122002306E000224FF000434D
:100F100002E06FF0010253101AEB06004CEB08518F
:100F200010EB0A0041EB0B01BDE8F04DFFF734BFB9
:100F30000EB540F2334202920022CDE90022134660
:100F4000FFF739FF03B000BDC1F30A52C1F313012B
:100F500040F2FF3341F480119A4202DA0020014648
:100F6000704740F233439A42A2F2334202DC5242CB
:100F7000FFF75FBEFFF74EBE01F0004330B421F033
:100F8000004150EA010206D00A0DA2F56072C1F3D9
:100F90001301002A02DC30BC00207047440F44EAF1
:100FA000C104C100E01830BC00EBC25000F0B0B981
:100FB000064C074D06E0E06840F0010394E80700A6
:100FC00098471034AC42F6D3FFF7E2F86073070895
:100FD00090730708C0B24FF4F05100F0D1B900008F
:100FE0002DE9F34F8BB04FF0000801F10C000C46D7
:100FF0004FF0010B46460DF1080A0190626901218C
:1010000001989047051E2DD0252D2CD0216A8847A8
:10101000C0B16269012101989047216A8847002880
:10102000F7D1411E62690198904700E0761CA169E2
:101030000B988847216A88470028F7D1E1690B9807
:101040008847DBE7A1690B9888470746A84201D18A
:10105000761CD3E7E1690B9888477F1C02D1B8F171
:10106000000F6FD047E1002762693D46394601987D
:1010700090472A2804D162690121019890470125EF
:10108000DFF888926269012101989047A0F1300150
:101090000A290AD24F45E5DC07EB870100EB41073F
:1010A000303FDFD445F01005ECE7E90601D46FF0DE
:1010B00000476C280AD04C2814D0682815D06A281C
:1010C0000DD074281CD07A281AD01DE06269012145
:1010D000019890476C2802D045F0040514E045F0D3
:1010E00002050DE045F020050AE062690121019842
:1010F0009047682802D045F0080505E045F40065F2
:101100006269012101989047C4E9015765283DD0E3
:1011100019DC58287AD00CDC452837D004DC252887
:1011200026D0412831D131E046282FD047282CD174
:101130002CE05B2877D0612828D063287CD06428F5
:1011400023D15AE0D1E06F2848D008DC66281DD0B2
:1011500067281BD0692821D06E2816D127E0702877
:1011600045D0732868D0752847D078280DD14DE038
:10117000A1690B988847054625283FF469AFE169C6
:101180000B9888476D1C3FF46AAFB4E023466A466B
:101190006FF001000B99FFF77DFA9FE045F04000EA
:1011A0006060A80723464FF0000236D43EE0E8070F
:1011B0007FF447AF2068011D21600068290501D533
:1011C00006701BE7290701D5068017E7A90703D595
:1011D000F117C0E9006111E706600FE745F0400034
:1011E0006060A80723464FF0080216D41EE040F6C0
:1011F0000E0125EA0100606016E045F040006060E5
:10120000A80723464FF00A0207D40FE045F040003C
:101210006060A80708D5234610226FF001000B99E3
:10122000AFF300805AE007E0234610226FF0010080
:101230000B99FFF7F5F851E04FF000094F464B4688
:10124000632802D05B2807D041E02079C00601D492
:101250000120A06001273AE06269012101989047CE
:101260005E2805D14FF0010962694946019890470F
:10127000216939B900210A46534643F82120491C07
:101280000829FADBB0B3216969B9C11700EBD16253
:1012900053110AEB830122F01F02821A01200B680E
:1012A000904003430B6062690121019890475D28DB
:1012B000E8D1B9F1000F09D00020514651F82020A3
:1012C000D24341F82020401C0828F7DB02AB22461D
:1012D00000976FF001000B99AFF3008000280CDA43
:1012E000401C08D1BBF1000F05D04FF0FF300DB00E
:1012F000BDE8F08FFFE74046F9E7E90701D108F1C3
:10130000010806444FF0000B78E60000CCCCCC0C72
:101310000029A8BF7047401C490008BF20F0010009
:10132000704710B4B0FA80FC00FA0CF050EA0104E7
:1013300004BF10BC704749B1CCF1200421FA04F479
:1013400011FA0CF118BF012121430843A3EB0C0152
:10135000CB1D4FEA00614FEA102042BF002010BCB5
:10136000704700EBC35010440029A4BF10BC704765
:10137000401C490008BF20F0010010BC704700006D
:101380007F2801D9002208E0064A02EB5002C0077C
:10139000127800D1120902F00F020120904008409B
:1013A000704700007C6A070870B58C1810F8015B64
:1013B00015F0070301D110F8013B2A1106D110F8EE
:1013C000012B03E010F8016B01F8016B5B1EF9D1F2
:1013D0002B0705D40023521E0DD401F8013BFAE778
:1013E00010F8013BCB1A921C03E013F8015B01F8E3
:1013F000015B521EF9D5A142D8D3002070BD7047C1
:101400000146014801F0E8BC7C05002010B5044805
:1014100001F0F4FC042801D0012010BD002010BD13
:101420007C05002010B500F015F8012801D001203E
:1014300010BD074801F0FCFD040006D14FF4006127
:10144000034801F06FFB00B10124204610BD0000ED
:101450007C05002008B501208DF800009DF80000F3
:1014600008BD0000134610B50A4601460024034893
:1014700001F0AEFE00B10124204610BD7C05002025
:1014800008B50120ADF80000034800231A4669465C
:10149000406829F063FD08BD74030020134610B5B1
:1014A0000A4601460024034801F02CFF00B1012444
:1014B000204610BD7C05002008B50220ADF80000D4
:1014C000034800231A466946406829F047FD08BDD5
:1014D00074030020FEE70000014800F087BA000016
:1014E00024090020014800F081BA000064080020AF
:1014F000014800F07BBA0000C4080020014800F059
:1015000075BA000084090020014800F06FBA00009D
:101510000006002001681823CAB2103AB2FBF3F2A9
:10152000054B6FF30901032A9B5CC36500D9091DB4
:101530008165084670470000004B030810B501465E
:1015400000208B698A6A4FF0C07453B1B3F5005F15
:1015500015D072B1012A0CD0022A0AD0032A09D16F
:1015600004E01AB1012A06D0022A03D1C96AC901CE
:1015700000D5012010BDC96AA142FAD010BD002AD1
:10158000F7D0012AF2D0022AF3D0032AF3D010BDFB
:1015900030B50468256825F48025256004686360FB
:1015A0008368402B036803D099600068C26030BD37
:1015B0009A600068C16030BD7047000010B54FF4FC
:1015C00096710348FEF7BCFE02490020488010BD1A
:1015D0000E530020FC00002070B5FFF7EFFF35A090
:1015E00004F02CFF4FF4FA7502E0284609F026FFBC
:1015F00033A134A000F0B8F80028F6D133A004F0ED
:101600001DFF02E0284609F019FF2DA132A000F0CD
:10161000ABF80028F6D134A004F010FF02E0284611
:1016200009F00CFF26A134A000F09EF80028F6D1A6
:1016300035A004F003FF40F2DC56394C02E030469E
:1016400009F0FCFE1EA1A06800F08EF80028F6D17B
:1016500034A004F0F3FE02E0304609F0EFFE18A1DA
:10166000E06800F081F80028F6D133A004F0E6FE2F
:1016700002E0304609F0E2FE11A1206900F074F8A2
:101680000028F6D130A004F0D9FE02E0284609F087
:10169000D5FE0BA1606900F067F80028F6D10A2397
:1016A00001222FA12F4802F04BFEFFF787FF0120F8
:1016B000207070BD3120415445300D0A00000000FB
:1016C0004F4B0000415445300D0A0000322E20439C
:1016D000574D4F44450D0A0041542B43574D4F443D
:1016E000453D310D0A000000332E2041542B435755
:1016F000444843500D0A000041542B43574448438B
:10170000503D312C310D0A00352E20506173735736
:101710006F72645F436F6E6E6563740D0A00000044
:10172000FC000020362E205365745F436F6E6E659B
:1017300063740D0A00000000372E2049505F436F8C
:101740006E6E6563740D0A00382E2044696E675909
:1017500075655F436F6E6E6563740D0A000000006F
:10176000460000001C08002070B50E460546C8243F
:10177000FEF70DFE82B229460B4804F04AFE0EE049
:1017800000F02CF840B931460848FEF7E4FD18B1E6
:10179000FFF714FF002070BD642009F05DFE641E99
:1017A000E4B2EDD2012070BDD40700200E5300201A
:1017B00010B5044600202060204604F04FFE20466D
:1017C000FEF7E5FD82B22146034804F022FEBDE8A3
:1017D0001040C82009F032BED407002006484188D6
:1017E00031B18288914205D100214180084670477D
:1017F000012070478180FBE7FC00002072B6FEE705
:10180000002200F001B8000030B50E4B0546012063
:101810005C7A002C14D1587A1C54587A03EB80005F
:1018200045605D7A03F108002A54587A421C5A72C6
:10183000303008703A2048702F208870CC7000201B
:1018400030BD00006C58012030B5B3F5804F05D095
:101850006FF0704140F82210002030BD8C690B6899
:101860008D6823434C688989240144EA0524234375
:1018700043EA014150F82230014C23401943E9E783
:101880000000F0CF10B50A6850F8223023F00103B1
:1018900040F822308C68082C23D000234A68224369
:1018A000CC681C430B6922431A434B690E4C1A4304
:1018B000CB691A430B6A1A434B6A1A438B6A1A4361
:1018C000CB6A1A430B6B1A438B691343CA6B0968C3
:1018D0001A4350F82130A343134340F8213000202D
:1018E00010BD4023DAE700007FFF0F0030B5D1E9DB
:1018F000003443EA04138C688D89240244EA0544C9
:1019000023430C8A094D00EB820005EB045423436A
:101910000C7D6D0105EB0464896923430B43416829
:1019200001F040410B434360002030BD0000F0FF58
:101930002DE9F0410446876D00F03AFB064694F825
:1019400035000025022806D08020606584F83450D8
:101950000120BDE8F0812068016821F016010160D6
:101960002068416921F080014161206C08B9A06CB8
:1019700020B12068016821F0080101602068016839
:1019800021F0010101600CE000F012FB801B052832
:1019900007D920206065032084F8350084F834508E
:1019A000D7E720680068C007EED194F85C103F20AC
:1019B0008840B860012084F8350084F83450002055
:1019C000C7E790F83510022903D080214165012036
:1019D0007047052180F835100068016821F0010189
:1019E000016000207047406D704700002DE9F8430A
:1019F00004464FF00009CDF8009063484FF41651AB
:101A0000A56D0068B0FBF1F72E6894F85C10082013
:101A100000FA01F131420FD021680A6852070BD554
:101A20000A6822F004020A6094F85C108840A860FA
:101A3000606D40F00100606594F85C104FF00108A3
:101A400008FA01F0304208D021684969090604D536
:101A5000A860606D40F00200606594F85C1004209E
:101A60008840304208D021680968890704D5A860F9
:101A7000606D40F00400606594F85C1010208840B0
:101A8000304218D021680968090714D5A860206879
:101A90000168490304D50068000308D5A16C07E07C
:101AA0000168C90503D4016821F008010160216CB7
:101AB00009B12046884794F85C10202088403042C5
:101AC00031D021680968C9062DD5A86094F8350081
:101AD00005282068016806D0490347D5006800033F
:101AE0001DD4616C1CE021F0160101602068416981
:101AF00021F080014161206C08B9A06C20B1206800
:101B0000016821F00801016094F85C103F208840D2
:101B1000A86084F8358084F83490216D1FE0E16B73
:101B200009B120468847606D00282BD0606DC00742
:101B300014D0052084F835002068016821F00101E7
:101B400001600098401C0090B84203D820680068EB
:101B5000C007F6D184F8358084F83490E16C002910
:101B600010D001B02046BDE8F04308470168C90520
:101B7000D5D4016821F01001016084F8358084F823
:101B80003490CCE7BDE8F883240000202DE9F04133
:101B9000044600F00DFA06465CB1022084F83500D8
:101BA000002584F834502068016821F001010160AB
:101BB0000DE00120BDE8F08100F0FAF9801B052856
:101BC00005D920206065032084F83500F2E72068FD
:101BD0000068C007F0D12268116820480140D4E9AC
:101BE00001031843D4E903363343184363691843A8
:101BF000A3691843E3691843236A18430843616AD9
:101C0000042903D1D4E90B13194308431060206859
:101C10004069666A20F0070130460E430127042818
:101C20000CD1A06A0643E06A40B12046FFF786FC6B
:101C300020B14020606584F83570BAE720684661BD
:101C40002046FFF767FC94F85C203F2191408160BB
:101C5000656584F835700020ACE700003F8010F027
:101C60002DE9F0410446866D90F8340000250128E6
:101C70000DD0012084F8340094F835700020012F35
:101C800007D084F8340002252846BDE8F081022000
:101C9000FBE7022784F8357060652046FFF778FC83
:101CA00094F85C103F208840B0602068016841F0E3
:101CB00016010160206C20B12068016841F0080124
:101CC00001602068016841F001010160DCE700006B
:101CD00070B5044600F06CF90546601C02D004485B
:101CE0000078044400F064F9401BA042FAD370BDB0
:101CF000180000202DE9F04186B014216846FEF757
:101D00001FFB20480168002939D1012101601E48CC
:101D10000024016841F00101016000684FF480581F
:101D200000F001000C27CDF80080CDE904700326F7
:101D300002250396CDE901546946144800F02EF8B7
:101D40004FF68070CDE9000502AA694682E8D0000E
:101D50000F4800F023F84CF23370CDE9000502AAD9
:101D6000694682E8D0000B4800F018F802AA6946DC
:101D700082E8D000CDE90085074800F00FF806B0F2
:101D8000BDE8F0810C000020383802400014024009
:101D900000100240000C0240001802402DE9F84FEC
:101DA000DFF8BCA10022012503264FF00F090AF13C
:101DB000040BAAF1040E00BF0B6805FA02F42340DD
:101DC000A34270D10F7907F00307012F01D0022F32
:101DD00016D187684FEA420806FA08FC27EA0C0782
:101DE000D1F80CC00CFA08FC4CEA070CC0F808C08B
:101DF0004768A7430C79C4F3001494403C43446003
:101E00000C79E443A4070AD0C4684FEA420C06FAEE
:101E10000CF7BC438F6807FA0CF72743C7600C79AF
:101E200004F00304022C12D1D40800EB840CDCF87B
:101E300020405707FF0E09FA07F824EA0804D1F8F2
:101E4000108008FA07F848EA0408CCF820800468F3
:101E50004FEA420C06FA0CF7BC430F7907F0030770
:101E600007FA0CF7274307604C6814F4403F70D022
:101E70003C4C276847F480472760246822F003071A
:101E800004F480440094384C07EB040CDCF8084858
:101E900097074FEA177809FA08F7BC43334FB8425F
:101EA00002D1002724E054E0314FB84201D101278C
:101EB0001EE0304FB84201D1022719E02E4FB84240
:101EC00001D1032714E02D4FB84201D104270FE0C0
:101ED0002B4FB84201D105270AE02A4FB84201D161
:101EE000062705E0284FB84201D1072700E0082760
:101EF00007FA08F72743CCF80878DAF80040574685
:101F0000D1F804C09C435FEACC2C00D51C433C6054
:101F1000DBF800405F46D1F804C09C435FEA8C2C9C
:101F200000D51C433C60DEF800407746D1F804C081
:101F30009C435FEA8C3C00D51C433C60084F083F43
:101F40003C68D1F804C09C435FEACC3C00D51C43FC
:101F50003C60521C102AFFF42FAFBDE8F88F000040
:101F6000083C01404438024000300140000002407B
:101F70000004024000080240000C02400010024031
:101F80000014024000180240001C02400069084092
:101F900000D001207047426921EA02030A4043EA67
:101FA0000241816170470AB1816170470904FBE712
:101FB00001488068704700001800002002488168CE
:101FC0000278114481607047180000200B4810B55A
:101FD000016841F400710160016841F480610160B1
:101FE000016841F480710160032000F09FF80F2028
:101FF00000F006F800F050F8002010BD003C024050
:1020000030B505461F4887B00024016841F0100133
:102010000160006806A900F01000009001A800F01F
:10202000CFF90498A8B100F0EBF940001649174A1F
:10203000B0FBF1F11648491E026040F2E732C0E9F8
:102040000324C0E90114846101F066FA040003D09E
:1020500015E000F0D5F9E9E70D4801F0A9FA040010
:102060000DD1362000F034F8102D07D20022294679
:10207000362000F03BF80748056000E0012407B077
:10208000204630BD4038024040420F000010004062
:10209000E40900201C0000200C4882B0016841F4D3
:1020A00080410160006800F4804000900748001FF4
:1020B000016841F0805101600068002200F080500A
:1020C00000900F21901E02B000F010B8443802407A
:1020D000002809DB00F01F02012191404009800027
:1020E00000F1E020C0F8001170470000F0B40E4B82
:1020F0001B680C46C3F30223C3F10705042D00D966
:102100000425191D072901D2002300E0DB1E01264A
:1021100006FA05F1491E214099409E40761E164060
:102120003143F0BC04F0AEB90CED00E0064900F01C
:10213000070208684FF6FF03184040EA0220034AEE
:1021400010430860704700000CED00E00000FA0545
:102150002DE9F843054600684FF00109C1074FF02B
:10216000000601D1400727D5DFF80C81C8F8686068
:10217000FFF71EFF0746414C05E000BFFFF718FFC1
:10218000C01B022857D820680001F7D46868810175
:10219000287A41EA0070394984310860C8F86890AB
:1021A000FFF706FF074604E0FFF702FFC01B022807
:1021B00041D820680001F7D52878800752D52F48EC
:1021C0004030016841F08051016000682C4C00F003
:1021D00080500090206840F480702060FFF7E8FE97
:1021E000074604E0FFF7E4FEC01B022823D820685E
:1021F000C005F7D5214C7034206810F4407020D011
:10220000A98901F4407181421BD020681D4920F446
:102210004070C1F800900E6020602068C00710D0A8
:10222000FFF7C6FE064641F2883707E0FFF7C0FE1B
:10223000801BB84202D90320BDE8F88320688007DC
:10224000F4D5E9680D48C1F301220830032A0BD008
:10225000016821F4F81101602068A989C1F30B011C
:10226000084320600020E7E70268074B22F4F812D9
:1022700019400A430260EFE700004742003802407D
:1022800000700040400E4742FFFCFF0F2DE9F04771
:102290000E46050065D0DFF81481D8F80000F7B2CB
:1022A00000F00700B04207D288F80070D8F80000AC
:1022B00000F00700B04254D128683D4C810712D588
:1022C000400703D5206840F4E050206028780007DC
:1022D00003D5206840F4604020602068A96820F0A1
:1022E000F000084320602878C0072DD03049686886
:1022F0000839012812D0022813D0032811D0096808
:10230000890700292DDA216821F0030101432160AA
:10231000FFF74EFE814641F2883A0EE009688903D4
:10232000EFE709688901ECE7FFF742FEA0EB09013E
:10233000514502D90320BDE8F0872068696800F0A4
:102340000C00B0EB810FEFD1D8F80010404601F03F
:102350000701B14207D90770006800F00700B042DA
:1023600001D00120E7E72878400705D52068E96813
:1023700020F4E050084320602878000706D5206844
:10238000296920F4604040EAC100206000F058F85C
:102390002168084AC1F30311515CC840064908602E
:1023A00006480068FFF72CFE0020C4E7003C02400E
:1023B00008380240084B0308240000201C000020BD
:1023C0000F2202600C4A136803F003034360136892
:1023D00003F0F0038360136803F4E053C3601268F2
:1023E0004FF4E05303EAD20202610448006800F0AF
:1023F000070008607047000008380240003C0240B7
:102400000448054900680968044AC1F38221515C07
:10241000C84070472400002008380240184B0308C9
:102420000448054900680968044AC1F34231515C17
:10243000C84070472400002008380240184B0308A9
:10244000154810B5006810F00C02144813D0411064
:10245000042A0FD0082A0ED10F4C241F22682368AB
:1024600002F03F025B0207D52068C0F38810A0FB92
:10247000010106E0084610BD2168C1F38811A1FBE7
:1024800000010023FDF7FEFE2168C1F30141491C54
:102490004900B0FBF1F010BD083802400024F40000
:1024A0002DE9F84F04006ED02078DFF84C93C00778
:1024B000A9F104054AD009F104000168C1F38101C2
:1024C000012908D00068C0F3810002280AD1D9F898
:1024D0000000400206D52868800337D560680028D0
:1024E000E1D033E06068B0F5803F10D0B0F5A02FA8
:1024F000286810D020F480302860286820F48020DC
:1025000028606068A8B1FFF753FD06460DE0286813
:1025100040F48030F4E740F480202860F7E700BF03
:10252000FFF746FD801B642873D828688003F7D521
:102530000CE0FFF73DFD064605E000BFFFF738FD64
:10254000801B6428F0D828688003F7D42078DFF84F
:10255000AC8280074FF0000A3ED5A748001D0168F5
:1025600011F00C0F08D00068C0F3810002280BD1D5
:10257000D9F80000400207D42868800716D5E06823
:10258000012800D112E033E1E068B8B10120C8F8B9
:102590000000FFF70DFD064605E000BFFFF708FD50
:1025A000801B0228C0D828688007F7D528682169D1
:1025B00020F0F80040EAC10028600DE0C8F800A053
:1025C000FFF7F6FC064604E0FFF7F2FC801B02284A
:1025D0001FD828688007F7D42078000722D5864FB7
:1025E00087486169703771B101210160FFF7E0FC34
:1025F000064604E0FFF7DCFC801B022809D8386897
:102600008007F7D50EE0C0F800A0FFF7D1FC064622
:1026100005E082E0FFF7CCFC801B02287DD83868FB
:102620008007F7D42078400768D5DFF8CCB10027C1
:102630000BF13C0BDBF80000C0000BD4DBF8001002
:1026400041F08051CBF80010DBF80000012700F0CA
:10265000805000906B4E3068C00510D4306840F454
:1026600080703060FFF7A4FC009005E0FFF7A0FC4D
:102670000099401A022850D83068C005F6D55E4E41
:10268000A0686C3601280FD00528306810D020F0E3
:1026900001003060306820F004003060A068B8B1FC
:1026A000FFF786FC00900FE0306840F00100F4E78F
:1026B00040F004003060F7E7FFF77AFC0099411A18
:1026C00041F28830814266D830688007F4D50EE048
:1026D000FFF76EFC009007E0FFF76AFC0099411AD3
:1026E00041F28830814256D830688007F4D42FB147
:1026F000DBF8001021F08051CBF80010A069C8B3BE
:102700003D49091D0968C1F3810102294AD0022807
:10271000504607D0C8F8600000E03CE0FFF748FCF6
:1027200004463BE04746C8F86000FFF741FC064618
:1027300005E000BFFFF73CFC801B02282BD828686F
:102740008001F7D4D4E907010843A16A2E4A490859
:1027500002EB0141626A41EA8211084394F82C10AD
:1027600040EA0161C9F8001001203866FFF720FC3B
:10277000044606E03EE000BFFFF71AFC001B0228FB
:1027800009D828688001F7D534E000BFFFF710FCB6
:10279000001B022802D90320BDE8F88F28688001B9
:1027A000F4D427E00128F7D0D9F80000E26900F45A
:1027B000800191421CD1226A00F03F01914217D161
:1027C00047F6C071626A0140B1EB821F10D1A26A64
:1027D0004FF0FF3300F4403103EB5202B1EB024FF4
:1027E00006D194F82C1000F07060B0EB016F01D0AE
:1027F0000120D1E70020CFE7043802400000474223
:10280000800E4742007000400000FFFF006850301B
:1028100050F8210070470068503040F82120704780
:1028200010B500680B4641680D480140080CD8708F
:10283000C1F304245C7001F03F049C70C1F3423189
:10284000197052B902F074FAD870587802F070FA20
:102850005870987802F06CFA9870002010BD000053
:102860003FFFFF0010B50B460168896A5960016897
:102870000969C1F30E019960006801680D480140C3
:10288000C1F305401870C1F306245C7001F07F04A9
:102890009C70890DD97052B902F04AFA18705878B4
:1028A00002F046FA5870987802F042FA98700020C8
:1028B00010BD00007F7F7F0010B5040002D0607F54
:1028C00010B106E0012010BD00202077204600F066
:1028D00041F8022060772068C168C943C90632D533
:1028E000CA214162216853204862204602F034FA2E
:1028F00020BB20688168164A114081602168886881
:1029000062681043D4E904231A43104388602168A5
:10291000E068086120680169228941EA0241016199
:10292000204602F03DFA48B921680A6C22F4802260
:102930000A6421680A6CA3691A430A642268FF21A9
:10294000516208B110BD00200121617710BD000067
:10295000BFFF8FFF1FB500210091019102910391EC
:102960000068084988420CD102200090C001039001
:102970006846FFF7EDFB08B1FEF740FF0249012072
:1029800008601FBD002800403C0E474270B5044659
:10299000007F0B46012819D0012626770220607798
:1029A000B2B19878D97840EA014558781978000290
:1029B00040EA413005432168CA204862216853201B
:1029C0004862204602F0C8F9D0B122E0022070BD72
:1029D0005878C10603D500F0EF000A305870D87857
:1029E00002F0AFF90204587802F0ABF942EA002293
:1029F000987802F0A6F90243187842EA4035DAE7FF
:102A00000748054020684560204602F0C9F900B932
:102A100066772268FF2151620021217770BD000096
:102A20003FFFFF002DE9F0410446007F0D460128DD
:102A300023D04FF0010884F81C80022060772068C2
:102A4000002780684FEA4060D2B1002800DBEF70B9
:102A5000A878297840EA01466878E978000240EAD7
:102A6000815006432168CA20486221685320486289
:102A7000204602F071F9B8B12CE00220BDE8F081E7
:102A8000002800DBEF70287802F05BF90204687818
:102A900002F057F942EA0022A87802F052F9024304
:102AA000E87842EA8056DDE70D4806402068066077
:102AB0002068816821F480218160D5E90301084301
:102AC00021688A6810438860204602F069F908B9D5
:102AD00084F81D802268FF2151622777CEE700002D
:102AE0007F7F7F0070B504460B482168C860FFF700
:102AF0005FFA05464FF47A7607E000BFFFF758FA11
:102B0000401BB04201D9032070BD2068C068800618
:102B1000F4D5002070BD00005F7F010010B5FEF706
:102B20006EFC10BD2DE9FE430446002603200D4631
:102B300084F83400606C03285ED0B5F5805F5BD00C
:102B40004FF4006700204FF08068BD421FD18146DE
:102B5000009001900021206802F04DF9800113D40B
:102B60006946204602F03AFD07000DD10198400366
:102B700034D5B4F850000104206802F073F907005E
:102B800002D10221206823E0A06B384328E01DB168
:102B9000A06B40F0006023E081460090019000218E
:102BA000206802F028F98001EED46946204602F040
:102BB00015FD0700E8D10198C0030FD5B4F8500007
:102BC0000104206802F04EF90700DDD100212068E1
:102BD00002F095F90700D7D14F46D5E74746D3E72E
:102BE000A063A06B144F4FF0010848B120688763C1
:102BF00084F8348001260EE0A06B40F08050EFE7AF
:102C0000211DD4E9050C0EC9CDE90050CDF808C04E
:102C1000206802F0F9F84FF40071206802F056F9CC
:102C200028B121688F63A16B0143A163012684F859
:102C300034803046BDE8FE83FF0540007047000049
:102C4000F0B5426E920F0A70426EC2F383624A7010
:102C5000426EC2F301628A70426E120CCA70B0F802
:102C60006420120A0A7190F864204A71826E120D73
:102C7000CA80826EC2F303420A72B0F86820C2F3BF
:102C8000C0324A72B0F86820C2F380328A72B0F85B
:102C90006820C2F34032CA72B0F86820C2F3003232
:102CA0000A7300264E73426C4FF40075012462B122
:102CB000012A3AD0026847499163816B41F0805103
:102CC000816380F834400120F0BDB0F86820C36E05
:102CD0009205120D42EA93720A61C26EC2F3C26299
:102CE0000A75C26EC2F302624A75C26EC2F34252E4
:102CF0008A75C26EC2F38242CA75C26EC2F3C23214
:102D00000A760A69521C42650B7E03F007039B1C7E
:102D10009A4042650B7A03F00F0704FA07F38365C4
:102D20005B0A5A43C0E917250EE090F86820C36E8D
:102D30009206920A42EA13420A610A69521C9202FE
:102D40004265C0E91652056630F86C2FC2F3803236
:102D500001F8192F0288C2F3C6124A70027802F0F5
:102D60007F028A704268D20FCA704268C2F3417211
:102D70000A714268C2F382624A714268C2F38352A6
:102D80008A714268C2F34052CA710E724268C2F33D
:102D900000424A728288C2F3C0328A728288C2F3C9
:102DA0008032CA728288C2F340320A738288C2F3C8
:102DB00000324A738288C2F381228A738288C2F306
:102DC0000122CA730079C0F3460008744C740020D5
:102DD000F0BD0000FF054000426C0A60826C4A6052
:102DE000C26C8A60026DCA60426D0A61826D4A617E
:102DF000C26D8A61006EC8610020704770B50446DC
:102E0000B0F8500000250104206802F060F918B104
:102E1000A16B0143A16304E00021206801F0EBFFF6
:102E20000546C5F3432070BDF8B5056B0446006840
:102E3000416B09041BD5290719D5D4E90A56002E80
:102E400014D00027206801F0F5FF05F8010B010AF6
:102E500005F8011B010C05F8021B000E361F7F1C34
:102E600005F8010C082FEDD3C4E90A56F8BD416BF3
:102E70004FF00006C9054FF0010744D539028163C0
:102E80002068C16B4CF23A329143C1632068C16A39
:102E900021F00101C16228071DD515F0220F09D0CC
:102EA000206802F045F928B1A16B0143A1632046D7
:102EB000FFF7C4FE216840F23A50886384F834700A
:102EC0002663A80703D0204600F014FAF8BD204678
:102ED00000F014FAF8BD2806FCD5A80609D520682C
:102EE00002F026F928B1A16B0143A1632046FFF748
:102EF000A5FEA807EED12068C16A21F00801C162D1
:102F000084F83470E3E7416B490424D5290722D5BE
:102F1000D4E90856002EDDD05FF0000715F8010B4C
:102F2000009015F8011B361F40EA0120009015F8AB
:102F3000021B40EA0140009015F8011C40EA0160C4
:102F400000906946206801F088FF7F1C082FE5D3B8
:102F5000C4E90856F8BD416B40F23A221142F9D05B
:102F6000416B890703D5A16B41F00201A163416B5D
:102F7000090703D5A16B41F00801A163416B8906E4
:102F800003D5A16B41F02001A163416BC90603D5B4
:102F9000A16B41F01001A163416B890503D5A16BC1
:102FA00041F00801A16340F23A7181632068C16B6E
:102FB00040F23A329143C163206802F0B9F8A16B44
:102FC0000843A063280706D584F83470266320469A
:102FD000FFF734FEF8BD2806FCD515F0300F0CD0F5
:102FE000E16B11480865E06BFEF7EBFC0028F1D0BF
:102FF000E06BBDE8F84002F0CFBAA8070CD0216C16
:103000000A480865206CFEF7DCFC0028E2D0206C42
:10301000BDE8F84002F097BAA66384F834702663DE
:103020002046FFF77BFDF8BD99550008475500087D
:1030300070B504000ED094F83400002518B9257737
:10304000204600F04FF8032084F83400204600F0BA
:103050000BF808B1012070BDA5632563012084F839
:103060003400002070BD0000FEB500250446762027
:103070000095CDE9015029460B460A46206801F02B
:10308000C3FE48BB154E46F8A05F206801F0CEFE97
:10309000012535600220FEF71BFE204602F086FB6C
:1030A00030B100BF84F83450A16B0143A16313E039
:1030B000204602F003FB0028F4D14FF40071206891
:1030C00001F004FF002808D0226805499163A16B34
:1030D0000143A16384F834500120FEBD00802542E5
:1030E000FF0540002DE9F04387B0054614216846EE
:1030F000FDF726F93049286888425AD12F48002622
:10310000016841F40061016000682C4900F400602E
:1031100014390590086840F004000860086800F061
:1031200004000590086840F0080008600868022460
:1031300000F0080005904FF4F85003274FF00C08FA
:103140008DE8D10169461E48FEF728FE4FF00409BC
:1031500001AACDF8009082E8D00169461948FEF72F
:103160001DFE1A4C184820604FF00060C4E90106AB
:103170004014C4E90360800060618000A0612020E9
:10318000E0610003C4E908098001C4E90A70801005
:1031900020632046FEF7FAFC08B1FEF72FFB2C64F3
:1031A000002205213120A563FEF7A0FF3120FEF7A4
:1031B0008FFF07B0BDE8F083002C01404438024087
:1031C00000080240000C0240586402400006002043
:1031D0002DE9F04786B01F460446154639B194F8EC
:1031E0003400012807D0022006B0BDE8F087A06BAC
:1031F00040F0006008E00020A063E36DEA199A4205
:1032000004D9A06B40F00070A06369E0032284F849
:10321000342022688146D0622268D36B40F22A367D
:103220003343D363236C2F4ADA63236C2E4ADA6468
:10323000226C1065226C9060206C0068026822F09D
:10324000C002026020680A46266C4FEA472800F157
:1032500080014FEA98033046FEF702FDDFF88CA0AC
:10326000012670B12068C16B21F49571C16321689A
:10327000C1F838A0A06B40F08040A06384F83460AF
:103280002EE01B480660606C012800D06D024FF0F4
:10329000FF30CDE900089020029002200596CDE98C
:1032A00003096946206801F090FD012F06D98220AC
:1032B00020632946206801F07BFE05E08120206321
:1032C0002946206801F08DFE00288DD02268C2F8C2
:1032D00038A0A16B0143A16384F83460C4F8309036
:1032E000012081E705550008A1540008FF054000B2
:1032F0008C85254210B5FEF7C3F810BD10B5FEF75A
:10330000DBF810BD2DE9F04F5FEA010B87B01E46D8
:103310000446114607D094F83400012807D0022053
:1033200007B0BDE8F08FA06B40F0006008E000251A
:10333000A563E26D8819904204D9A06B40F000703B
:10334000A06356E0032084F834002068C56220683A
:10335000C26B40F21A2942EA0902C263E26B2D48AD
:10336000D063E26B2C48D064E06B0565606C01288B
:1033700000D049024FF09008012E05D9A02020630B
:10338000206801F0EFFE04E0C4F83080206801F00E
:1033900002FFDFF888A0012730B12268C2F838A008
:1033A000A16B0143A16321E01D480760E16B402050
:1033B0008860E06B0068016821F0C00141F04001C5
:1033C000016022687602B30859468032E06BFEF74E
:1033D00047FC80B12068C16B21EA0901C163216803
:1033E000C1F838A0A06B40F08040A06384F834702E
:1033F0002563012094E74FF0FF30CDE90006CDE9C9
:103400000285CDE904576946206801F0DEFC002002
:1034100086E700008B550008A1540008FF05400016
:103420008C85254270B515460E46040003D094F8ED
:10343000490010B107E0012070BD002084F8480069
:10344000204600F01DF804F108012068FEF71AFA82
:103450003146A2682068FEF749FAD4E901022946FC
:10346000236BFEF7F1F92168A06851F8202042F0A3
:10347000010241F82020012084F84900002070BD9D
:10348000FEF738BC7047704770B590F83C20012AB1
:1034900032D0012480F83C40022280F83D200368AD
:1034A0005A689D6822F070060A6832435A60134BCE
:1034B00002689A4214D0B2F1804F11D0104B9A4258
:1034C0000ED0104B9A420BD00F4B9A4208D00F4BA4
:1034D0009A4205D00E4B9A4202D00E4B9A4204D12A
:1034E000496825F080031943916080F83D40002130
:1034F00080F83C10084670BD022070BD00000140FD
:103500000004004000080040000C0040000401409E
:10351000004001400018004010B5040003D094F8AA
:103520003D0010B107E0012010BD002084F83C00F0
:10353000204600F01FF8022084F83D00211D20687D
:1035400002F026FB012084F8460084F83E0084F84F
:103550003F0084F8400084F8410084F8420084F879
:10356000430084F8440084F8450084F83D000020BE
:1035700010BD000008B500680B49884212D10B4805
:10358000016841F0040101600068002200F00400BD
:10359000009005211E20FEF7A9FDBDE808401E2071
:1035A000FEF796BD08BD000000080040403802400C
:1035B00090F83D10012901D001207047022180F8C8
:1035C0003D100168CA6842F00102CA6000681149F2
:1035D000884214D0B0F1804F11D00F4988420ED0EC
:1035E0000E4988420BD00E49884208D00D498842C6
:1035F00005D00D49884202D00C49884204D1816827
:1036000001F00701062903D0016841F001010160C2
:103610000020704700000140000400400008004006
:10362000000C004000040140004001400018004030
:1036300070B5044690F83C000025012817D00126FB
:1036400084F83C60022084F83D002068826822F003
:10365000770222F47F4282600868502838D00DDC5F
:1036600020284FD005DC90B3102811D14AE0022069
:1036700070BD302846D040280AD13BE060282FD0CA
:1036800070280DD0B0F5805F03D0B0F5005F12D088
:10369000012584F83D60002084F83C00284670BD78
:1036A000CB68D1E90121206802F0EBFA206881683B
:1036B00041F0770109E0CB68D1E90121206802F0EF
:1036C000E0FA2068816841F480418160E1E719E017
:1036D000CA684968206802F0A9FB5021206806E00A
:1036E000CA684968206802F0B2FB6021206802F0D5
:1036F000D2FACEE7CA684968206802F097FB4021F9
:103700002068F4E7226801461046F0E770472DE98B
:10371000F04104460068C66805694FF00007A90734
:1037200013D5B10711D5F91E01610120207720685A
:1037300080698007204602D0FFF7E8FF04E000F030
:10374000A9F8204600F03CF92777680716D57007DE
:1037500014D521686FF004000861022020772068EA
:10376000806910F4407F204602D0FFF7CFFF04E0CD
:1037700000F090F8204600F023F92777280715D5A8
:10378000300713D521686FF0080008610420207706
:103790002068C0698007204602D0FFF7B7FF04E029
:1037A00000F078F8204600F00BF92777E80616D5E8
:1037B000F00614D521686FF010000861082020770A
:1037C0002068C06910F4407F204602D0FFF79EFFBA
:1037D00004E000F05FF8204600F0F2F82777E807F1
:1037E00008D0F00706D021686FF00100086120467C
:1037F00000F078F9280608D5300606D521686FF064
:10380000800008612046FFF73DFE680608D5700677
:1038100006D521686FF040000861204600F06CF981
:10382000A8060AD5B00608D521686FF02000086107
:103830002046BDE8F041FFF726BEBDE8F08100005C
:1038400010B586B0044614216846FCF779FD0E4990
:103850002068884215D10D480021026842F0080214
:103860000260006800F0080005904FF4805000905E
:103870000220CDE90101CDE9031069460448FEF7B5
:103880008DFA06B010BD000000080040303802403C
:10389000000C0240704770B5044690F83C000026CA
:1038A0000D4601280FD0012084F83C006AB1042A9B
:1038B0001DD0082A2FD00C2A3FD00126002084F8E2
:1038C0003C00304670BD022070BD206802F0ECF96B
:1038D0002068816941F0080181612068816921F0D7
:1038E00004018161206881692A69114311E020681F
:1038F00002F00AFA2068816941F400618161206860
:10390000816921F480618161206881692A6941EAC5
:1039100002218161D2E7206802F02CFA2068C16997
:1039200041F00801C1612068C16921F00401C16151
:103930002068C1692A69114311E0206802F04EFA3B
:103940002068C16941F40061C1612068C16921F446
:103950008061C1612068C1692A6941EA0221C161AF
:10396000ACE710B5040003D094F83D0010B107E0B7
:10397000012010BD002084F83C00204600F01EF815
:10398000022084F83D00211D206802F001F9012089
:1039900084F8460084F83E0084F83F0084F8400034
:1039A00084F8410084F8420084F8430084F844001D
:1039B00084F8450084F83D00002010BD70470000E9
:1039C0000068094988420ED1074834300068B0F5D4
:1039D000FA7F08D105494888401E0004000C488041
:1039E00001D126F0A7BE704700080040F400002077
:1039F00030B500250446022249B1042912D0082915
:103A00004CD094F84100012853D0012030BD94F8E7
:103A10003E000128F9D184F83E202068C26842F0B7
:103A2000020209E094F83F000128EED184F83F201B
:103A30002068C26842F00402C2600122206802F0DD
:103A400013F921492068214A884201D0904203D1CC
:103A5000436C43F4004343642068884213D0B0F1C0
:103A6000804F10D01A4988420DD01A4988420AD096
:103A70001949884207D0904205D01849884202D09F
:103A80001749884204D1816801F00701062903D053
:103A9000016841F001010160284630BD94F8400002
:103AA0000128B2D184F840202068C26842F00802A0
:103AB000C2E784F841200C2901D00125ECE72068F9
:103AC000C26842F01002B7E7000001400004014064
:103AD0000004004000080040000C0040004001408D
:103AE0000018004000680349884201D1FEF766BA19
:103AF0007047000000100040704738B5044690F849
:103B00004200202801D0022038BD61B15AB1012005
:103B1000206300206063204602F0E6FB0028F3D11A
:103B2000216B012901D0012038BD21680A6849684C
:103B3000009121680C3151E8002F42F0100241E859
:103B40000023002BF5D138BD2DE9F84F04460020A5
:103B500000909248924D934E844211D104202870D7
:103B60006946306830F015FB8C490A2254398B487D
:103B7000FFF7C3FF8C480068016821F0080101606D
:103B800086484FF0020B9030844213D185F800B084
:103B90006946306830F0FDFA80493122493901F137
:103BA000D900FFF7AAFF804860300068016821F063
:103BB000080101607C48483884427DD1A0F237106A
:103BC0000178FF2979D1C178AF2976D14178DFF822
:103BD000DC91DFF8DCA1774A4FF00108112904D00D
:103BE000332929D055294ED072E0807822286FD110
:103BF0000020002300EB4007194602EBC70700BF77
:103C000017F821C0491C6344C9B2DBB20629F7D3B7
:103C1000111891F84810012909D043B1002189F801
:103C200000108AF80000104480F8488050E0401CE2
:103C3000C0B20328DDD34BE08078442848D100206F
:103C4000002300EB4007194602EBC70707EB810C86
:103C5000491C9CF864C0C9B26344DBB20629F5D3A1
:103C6000111891F8AC10012908D03BB189F80080F7
:103C70008AF80000104480F8AC8029E0401CC0B2F3
:103C80000328DDD324E08078662821D10021002399
:103C900001EB4107184602EBC70700BF07EB800C9A
:103CA000401C9CF8C8C0C0B26344DBB20628F5D300
:103CB000501890F8100101E021E00EE001282CD00E
:103CC0005BB389F800B050188AF8001080F81081B2
:103CD00039486946006830F05CFA304814211738DA
:103CE000FCF72EFB2D491322173901F23710FFF78D
:103CF00004FF32480068016821F0080101602A4889
:103D00009038844248D1DFF8B880DFF8B8902E4C64
:103D100098F80000012805D023E0491CC9B2032906
:103D2000B5D3D5E799F80000F0B92848FCF72FFB88
:103D300080B22080062801D0092801D1FDF73EFC81
:103D400020880327DB2804D12F706946306830F0C3
:103D500020FA2088CD2804D12F706946306830F0D1
:103D600018FA98F8000018B199F80000012805D158
:103D70001648FCF70CFB2188084420800A4840F2D2
:103D80002B1212499038FFF7B8FE0C4860380068D3
:103D9000016821F008010160BDE8F88FFC060020F1
:103DA0006403002068030020640800205D030020F5
:103DB0005E0300204057012060030020840900209A
:103DC000FC00002084030020FE0000200E53002091
:103DD00070470000F8B5016804460868CA684B6976
:103DE00010F00F0F4FF0000559D003F0010602F458
:103DF0009077374365D0C10705D0D10503D5616CF5
:103E000041F001016164410705D5D90703D0616C18
:103E100041F002016164810705D5D90703D0616CC7
:103E200041F004016164010707D502F0200131432C
:103E300003D0616C41F008016164616C00293AD0E3
:103E4000800604D5900602D5204602F065F9206868
:103E50004069616CC0F38010090700D460B320464C
:103E600002F025F920684069400621D52068143009
:103E700050E8001F21F0400140E80012002AF5D16F
:103E8000E06BA8B16E490165E06BFDF79AFD002873
:103E900011D0E06B016D01B0BDE8F040084783062A
:103EA0000FD593060DD52046BDE8F84002F034B991
:103EB0002046FFF78DFFF8BD2046FFF789FF6564B8
:103EC000F8BD266B2023012E7DD1C6067BD5D606F4
:103ED00079D508684868009048694FF002064006A6
:103EE00041D5E16B086840680004000CE8D0A28D61
:103EF0008242E5D9E085C869B0F5807F2DD0206881
:103F00000C3050E8001F21F4807140E80012002AB4
:103F1000F5D12068143050E8001F21F0010140E87D
:103F20000012002AF5D12068143050E8001F21F05B
:103F3000400140E80012002AF5D184F842302563A0
:103F400020680C3050E8001F21F0100140E80012FA
:103F5000002AF5D1E06BFDF7EBFC6663A08DE18DE7
:103F6000401A81B22AE0A08DE18D401A81B2E08D25
:103F70000028A5D00029A3D022680C3252E8000FF7
:103F800020F4907042E80007002FF5D1206814302B
:103F900050E8002F22F0010240E80027002FF5D161
:103FA00084F84230256320680C3050E8002F22F05E
:103FB000100240E80023002BF5D166632046FFF78E
:103FC000C3FDF8BDFFE705062BD5150629D594F8E6
:103FD00041002128F5D1A068B0F5805F01D12069AA
:103FE000B0B1206A411C2162216800784860E08CF1
:103FF000401E0004000CE084E3D12068C16821F079
:104000008001C1602068C16841F04001C160D8E70B
:10401000206A0088C0F308004860206A801C206283
:10402000E5E74006CDD55006CBD5CA68204622F03C
:104030004002CA6084F8413000F0D2F9C1E70000C4
:10404000B15F000870B5040004D094F84100002569
:1040500010B106E0012070BD84F84050204600F009
:1040600023F8242084F841002068C16821F400511D
:10407000C160204602F0B2F82068016921F4904145
:1040800001612068416921F02A0141612068C1680D
:1040900041F40051C1606564202084F8410084F837
:1040A00042006563002070BD2DE9F04F87B00546E2
:1040B00014216846FCF744F99448934F1038D5F81A
:1040C00000C00024914903220223DFF844A2061510
:1040D0004FF0080E4FF00069BC4532D10F6847F42D
:1040E00000270F60096801F400210591016841F083
:1040F0000101016000688DE81C0000F00100CDE9BD
:1041000004E0694603925046FDF748FE824F81481D
:104110003860C7E90194C7E903467C61BC61FC6172
:104120003C6238467C62FDF731FD08B1FDF766FB65
:10413000EF63002209213420BD63FDF7D7FF34204F
:1041400065E0DFF8D881DFF8C4B107270BF1040B75
:10415000C4451FD1DBF8005045F01005CBF80050E6
:10416000DBF8001001F010010591016841F0010138
:1041700001600068694600F0010005904FF4C060DE
:104180008DE81900CDE903275046FDF707FE07B07B
:10419000BDE8F08FDFF88881C4453BD1D1F800C07D
:1041A0004CF4003CC1F800C0096801F400310591ED
:1041B000016841F0010101600068694600F00100FA
:1041C00005900C208DE81900CDE903275046FDF736
:1041D000E5FD514F4F48603748303860C7E90194DA
:1041E000C7E903467C614FF40030BC61C7E9074072
:1041F00038467C62FDF7CAFC08B1FDF7FFFAEF63B1
:10420000002207212620BD63FDF770FF2620FDF761
:104210005FFFBCE7DFF80C81C4453AD1D1F800C09C
:104220004CF4802CC1F800C0096801F4802105918C
:10423000016841F0020101600068694600F0020077
:1042400005904FF440608DE81900CDE9032736480A
:10425000FDF7A4FD304F2F48C03718383860C7E944
:104260000194C7E903467C614FF48030BC61C7E923
:10427000074038467C62FDF789FC08B1FDF7BEFABD
:10428000EF63002205212720BD63FDF72FFF2720C4
:10429000BDE726498C45BCD1DBF8007047F020070C
:1042A000CBF80070DBF8001001F0200105910168E7
:1042B00041F0040101600068694600F004000590C7
:1042C000C0208DE81900CDE9032E1948FDF766FDE1
:1042D000194F184838608005C7E90104C7E903464B
:1042E0007C61BC61FC613C6238467C62FDF74EFC3F
:1042F00008B1FDF783FAEF63002209214720BD636F
:10430000FDF7F4FE472082E7004C004040380240B1
:10431000000002404060024064080020001001409C
:1043200000440040004800400004024000140140E6
:10433000000802402864024084090020704770474A
:104340002DE9F843044690F84100984616460D467C
:10435000202802D00220BDE8F88385B17EB100207C
:104360006064212084F84100FDF722FEA684814686
:10437000E684A0682027B0F5805F02D003E001202A
:10438000E9E7206910B12E4600250EE000260CE07A
:104390008021204601F0F0FFA8B9C6B116F8010B44
:1043A00021684860E08C401EE084E08C4B464FF072
:1043B0000002CDF800800028EAD14FF040012046ED
:1043C00001F0DAFF40B184F841700320C3E735F80B
:1043D000020BC0F30800E3E784F841700020BAE75D
:1043E0007047FEE710B5114C206840F080702060E7
:1043F0000E481838016821F440210160016841F439
:1044000080210160206840F000702060012007F0EA
:1044100023F8206840F480702060022007F01CF828
:10442000206840F08070206010BD00001804024039
:1044300010B5114C206840F0807020600E4818388C
:10444000016821F440210160016841F4802101608C
:10445000206840F400702060012006F0FDFF206815
:1044600040F480702060012006F0F6FF206840F0E4
:104470008070206010BD0000180402402DE9F0415A
:10448000804618480024016821F440210160016839
:104490000160144E134F183625461037306840F02F
:1044A00080703060012006F0D7FF306840F48070E3
:1044B00030606006040E3868800501D5641CE4B2E3
:1044C000012006F0C9FF6D1CEDB2082DE6D3B8F14E
:1044D000000F04D0FFF786FF2046BDE8F081FFF70C
:1044E000A7FFF9E70004024070B5064618480168C6
:1044F00021F440210160016841F480210160144CE5
:104500001834206840F08070206000253006206854
:1045100002D540F4007001E040F0007020607006A9
:10452000060E012006F098FF206840F4807020609D
:10453000012006F091FF206840F08070206001208B
:1045400006F08AFF6D1CEDB2082DDFD370BD0000B0
:1045500000040240114810B5016821F440210160B7
:10456000016841F4802101600C4C1834206840F44B
:1045700000702060206840F480702060042006F005
:104580006BFF206840F000702060042006F064FF9C
:10459000206840F08070206010BD000000040240E0
:1045A000114810B5016821F440210160016841F40F
:1045B000802101600C4C1834206840F0807020602D
:1045C000206840F000702060042006F045FF20685D
:1045D00040F480702060206840F400702060BDE8E6
:1045E0001040042006F038BF0004024000B587B038
:1045F00014216846FBF7A4FE10480021026842F02F
:1046000002020260006800F0020005904FF4407062
:1046100000900120CDE9010102200390694608487D
:10462000FDF7BCFB06481830016841F400710160D9
:10463000016841F48071016007B000BD303802406C
:104640000004024070B516480025016821F440219D
:10465000016001680160124C1834206840F4007059
:104660002060012006F0F8FE206840F48070206091
:10467000012006F0F1FE0A48103007E06D1CEDB293
:10468000FA2D03D9FFF78CFF012070BD0168890561
:10469000F4D4206840F080702060002070BD0000DD
:1046A000000402401D4808B5016841F48001016022
:1046B000016801F480010091016841F4001101607A
:1046C0000068002200F40010009005210C20FDF786
:1046D0000DFD0C20FDF7FCFC002205210D20FDF74F
:1046E00005FD0D20FDF7F4FC002205211020FDF74B
:1046F000FDFC1020FDF7ECFC002205213920FDF720
:10470000F5FC3920FDF7E4FC002205213B20FDF7F4
:10471000EDFCBDE808403B20FDF7DABC3038024034
:1047200010B504490448FDF76BF80249491E0870AA
:1047300010BD00007D030020ECC4050810B504F096
:10474000B7FC32211648FBF7FBFD14211548FBF797
:10475000F7FD4FF496711448FBF7F2FD01202FF09E
:1047600065FB124C03220021206001202FF069FB21
:104770000F4903220860002101202FF062FB0D4940
:1047800003220860002101202FF05BFB0A490B4A3D
:10479000086000210A4826F015FC606010BD00008A
:1047A000B3060020E50600200E5300200400002080
:1047B000600300206803002070030020DC4A030827
:1047C000CD59000810B58EB01C216846FBF7B8FD26
:1047D0001C2107A8FBF7B4FD1A484FF02041102216
:1047E000016019494160062181600021C160C0E972
:1047F00004128161C16113020162C0E909139302CD
:10480000C0E90B134163816341640A230F203C24F8
:104810000093CDE901040DF10C0C11248CE8160075
:104820000691CDE9073009AB83E817000D9107AA7F
:1048300069460448FEF7F6FD002801D0FCF7DEFFCC
:104840000EB010BD0C050020040100A02DE9F04FB2
:1048500087B014216846FBF773FD4F4800240168B8
:1048600041F010010160016801F01001059101683B
:1048700041F004010160016801F004010591016843
:1048800041F020010160016801F0200105910168FB
:1048900041F080010160016801F08001059101682B
:1048A00041F001010160016801F001010591016819
:1048B00041F002010160016801F002010591016807
:1048C00041F008010160016801F0080105910168EB
:1048D00041F0400101600068DFF8C09000F0400046
:1048E0004FF4C0670590012239464846FDF75BFB4F
:1048F000DFF8ACA04FF44058002241465046FDF787
:1049000052FB0122D60331465046FDF74CFBDFF83F
:1049100094B0002231465846FDF745FB1020012592
:104920008DE8310069462048FDF738FACDE9007579
:104930000227CDE9024769464846FDF72FFACDF830
:1049400000800397CDE9015469465046FDF726FAE9
:104950000320CDE90240CDE9006569465046FDF7E8
:104960001DFA4FF488508DE8310069460F48FDF775
:1049700015FA88208DE8310069460D48FDF70EFADA
:104980000096CDE90154694658460394FDF706FAAE
:1049900007B0BDE8F08F000030380240001402403C
:1049A00000040240001802400010024000000240D3
:1049B000000C024030B587B014216846FBF7C0FCFC
:1049C0002348002421490594C0E900147F21816017
:1049D000FF21C0E9031444618461FDF76DFF08B154
:1049E000FCF70CFF00211A48FDF710FF45F2AA550D
:1049F000A84228D010208DF800008DF801008DF815
:104A0000024003940022694611480494FEF70AF814
:104A100008B1FCF7F3FE01208DF8140004208DF896
:104A200015008DF8160019208DF81700002205A931
:104A30000748FDF7ABFF08B1FCF7E0FE2A4600216E
:104A40000348FDF7E8FE07B030BD00000028004035
:104A50005C05002006480549016000214160816035
:104A60000422C160C0E9051201617047002C0140B9
:104A70007C05002010B58EB000240794089409949A
:104A80000A940B941C2168460C94FBF759FC1E48B1
:104A90001C490160A721C0E9011440F2E731C0E9D7
:104AA00003148461FEF738FD08B1FCF7A7FE4FF44C
:104AB0008050079007A91448FEF7BAFD08B1FCF72B
:104AC0009DFE1148FEF74DFF08B1FCF797FE0B94D1
:104AD0000BA90D480C94FEF7D7FC08B1FCF78EFE2D
:104AE0006020CDE90004029400226946064804943F
:104AF000FEF7D1FE08B1FCF781FE0348FEF7A0FEE9
:104B00000EB010BD00080040600600200C4810B533
:104B10000A4901604FF4E1314160002181600C22BB
:104B2000C160C0E904128161C161FFF78BFA0028FE
:104B300003D0BDE81040FCF761BE10BD004C004042
:104B4000FC0600200C4810B50A4901604FF4E13121
:104B50004160002181600C22C160C0E904128161C2
:104B6000C161FFF76FFA002803D0BDE81040FCF7E1
:104B700045BE10BD00100140440700200C4810B590
:104B80000A4901604FF4E1314160002181600C224B
:104B9000C160C0E904128161C161FFF753FA0028C6
:104BA00003D0BDE81040FCF729BE10BD0044004012
:104BB0008C0700200C4810B50A4901604FF4E13120
:104BC0004160002181600C22C160C0E90412816152
:104BD000C161FFF737FA002803D0BDE81040FCF7A9
:104BE0000DBE10BD00480040D40700200C4810B591
:104BF0000A4901604FF4E1314160002181600C22DB
:104C0000C160C0E904128161C161FFF71BFA00288D
:104C100003D0BDE81040FCF7F1BD10BD0014014009
:104C20001C0800202DE9FF478146002017460E464C
:104C300000900190029005460224E84603901DE092
:104C4000315DA1F13000092816D808F81510022CA2
:104C500004D908EB4500202100F8011C305D3038F4
:104C600049F82500315D09EB850030398161315DFE
:104C700030396D1CEDB20163641CE4B23046FBF7C1
:104C800086FBA042DCD81F4C4FF0FF31DFB120681B
:104C9000012F28D02FF0B6FB1B486946006824F08E
:104CA000E3FA1A486946006824F0DEFA18486946B3
:104CB000006824F0D9FA00231A46194620682FF01C
:104CC00059F9BDE8FF8720682FF09CFB1148694621
:104CD000006824F0C9FA10486946006824F0C4FA54
:104CE00069460E48E4E72FF08DFB0D4869460068E1
:104CF00024F0BAFA0B486946006824F0B5FA694610
:104D00000948D5E704000020000400200404002026
:104D100008040020C8030020D0030020CC0300209A
:104D2000E4030020E8030020EC030020FEE7FEE798
:104D3000010901EB810100F00F0000EB4100C0B25E
:104D40007047002102E00A38C0B2491C0A28FAD292
:104D5000090740EA116070472DE9F04104460068F8
:104D60000025C168490618D4C16841F08001C160BE
:104D7000FDF71EF906464FF47A78042707E000BFD6
:104D8000FDF716F9801B404501D96777012520689A
:104D9000C068400601D4002DF2D02846BDE8F0815D
:104DA00070B5044600680025C16821F08001C1602B
:104DB00020688068800606D42046FDF793FE10B177
:104DC000042060770125284670BD0A6842624A685F
:104DD0008262D1E902231A43D1E904310B43C16A4B
:104DE0001A4321F0F7011143C162002070470068A7
:104DF00000F0030070470844406970470148FEF71F
:104E000013B800007C05002070B50DF1100C1143A3
:104E10009CE870002343194329434268314347F615
:104E2000FF639A430A434260002070BD0321016082
:104E300000207047D0F8800070470A688260D1E98E
:104E400001231A43D1E903310B43C1681A436FF3BD
:104E50000B011143C160002070470968C0F8801041
:104E60000020704710B585B004463720CDE900100A
:104E700040200290002003904FF480600490694627
:104E80002046FFF7DAFF41F288323721204600F052
:104E90009BF905B010BD000010B504460A4885B066
:104EA00001432920CDE9001040200290002003900A
:104EB0004FF48060049069462046FFF7BEFF20460D
:104EC00000F03AFA05B010BD0000108010B585B0B2
:104ED00004461020CDE900104020029000200390ED
:104EE0004FF48060049069462046FFF7A6FF41F228
:104EF00088321021204600F067F905B010BD10B5CA
:104F000085B004460620CDE9001040200290002024
:104F100003904FF48060049069462046FFF78DFFB0
:104F200041F288320621204600F04EF905B010BD4E
:104F300030B585B000240546009401944FF480609C
:104F40000294CDE9034069462846FFF776FF0B48F7
:104F50004FF4FA510068B0FBF1F041F28831484358
:104F6000401E03D24FF0004005B030BD696B09060A
:104F7000F6D5C520A8632046F6E7000024000020EF
:104F800010B585B004464FF4D5700090082001900C
:104F900040200290002003904FF480600490694606
:104FA0002046FFF74AFF204600F02CFA05B010BD5E
:104FB00010B585B004461220CDE9001040200290C3
:104FC000002003904FF48060049069462046FFF76C
:104FD00034FF41F288321221204600F0F5F805B086
:104FE00010BD10B585B004461120CDE90010402059
:104FF0000290002003904FF48060049069462046A0
:10500000FFF71BFF41F288321121204600F0DCF847
:1050100005B010BD10B585B004460720CDE90020CD
:1050200040200290002003904FF480600490694675
:105030002046FFF702FF41F288320721204600F0A8
:10504000C3F805B010BD10B585B00446002102209C
:10505000CDE90010C020CDE902014FF4806004903A
:1050600069462046FFF7E9FE204600F03DF905B00D
:1050700010BD10B585B004460920CDE90010C02050
:105080000290002003904FF480600490694620460F
:10509000FFF7D3FE204600F027F905B010BD10B58C
:1050A00085B0044600213320CDE900104020CDE931
:1050B00002010001049069462046FFF7BEFE41F25E
:1050C00088323321204600F07FF805B010BD10B5BE
:1050D00085B004460D20CDE900104020029000204C
:1050E00003904FF48060049069462046FFF7A5FEC8
:1050F00041F288320D21204600F066F805B010BD5F
:1051000030B585B00C46054600210320CDE90010DE
:105110004020CDE902010001049069462846FFF7CE
:105120008CFE22460321284600F028F905B030BD48
:1051300010B585B0044600210C20CDE900104020B8
:10514000CDE902010001049069462046FFF775FE93
:10515000034A0C21204600F037F805B010BD0000CE
:1051600000E1F50510B585B004461920CDE9001021
:1051700040200290002003904FF480600490694624
:105180002046FFF75AFE41F288321921204600F0EE
:105190001BF805B010BD10B585B004461820CDE948
:1051A000001040200290002003904FF48060049093
:1051B00069462046FFF741FE41F288321821204619
:1051C00000F002F805B010BD454B10B51B684FF458
:1051D000FA54B3FBF4F353435B1E02D24FF000408A
:1051E00010BD426B12F0450FF6D01205F4D4426B9D
:1051F000520703D504218163084610BD426BD207D4
:1052000002D00121816305E0C52282630269D2B226
:105210008A4201D0012010BD0021FFF7ECFD314989
:10522000084201D1002010BD002802DA4FF00070C2
:1052300010BD410001D5402010BD810001D5802066
:1052400010BDC10002D54FF4807010BD010102D520
:105250004FF4007010BD410102D54FF4806010BDC5
:10526000C10102D54FF4006010BD010202D54FF418
:10527000805010BD410202D54FF4005010BD810294
:1052800002D54FF4804010BDC10202D54FF400405A
:1052900010BD410302D54FF4003010BD810302D58B
:1052A0004FF4802010BDC10302D54FF4002010BD83
:1052B000010402D54FF4801010BD410402D54FF413
:1052C000001010BD810402D54FF4800010BD00070E
:1052D00002D54FF4000010BD4FF4803010BD000027
:1052E0002400002008E0FFFD12494FF4FA5209683B
:1052F000B1FBF2F141F288325143491E02D24FF024
:1053000000407047426B12F0450FF6D01205F4D4FE
:10531000416B490703D50421816308467047416BFF
:10532000C90703D00121816308467047C521816305
:1053300000207047240000200F494FF4FA520968FA
:10534000B1FBF2F141F288325143491E02D24FF0D3
:1053500000407047426B12F0450FF6D01205F4D4AE
:10536000416B490703D50421816308467047C52175
:1053700081630020704700002400002030B5204BDE
:105380004FF4FA541B68B3FBF4F341F288346343DF
:105390005B1E02D24FF0004030BD446B14F0450F4D
:1053A000F6D02405F4D4436B5B0703D50421816355
:1053B000084630BD436BDB0702D00121816303E067
:1053C0000369DBB28B4201D0012030BDC52181636E
:1053D0000021FFF710FD10F4604F04D0410406D502
:1053E0004FF4005030BD000C1080002030BD000490
:1053F00002D54FF4805030BD4FF4803030BD0000F6
:105400002400002014494FF4FA520968B1FBF2F16C
:1054100041F288325143491E02D24FF0004070479A
:10542000426B12F0450FF6D01205F4D4416B4907D8
:1054300003D50421816308467047416BC90703D037
:105440000121816308467047416B490601D540211F
:1054500081630020704700002400002010B5064C36
:1054600001202070FBF7D2FF18B9207820F001004E
:105470002070207810BD00007403002070B5054630
:1054800025F0D8FC044603E0FBF7C0FF002806D057
:1054900025F0D0FC001BA842F6D34FF0FF3070BDC2
:1054A00010B5846BFCF79FFA022828D0206C416D60
:1054B000E06B406D012901D001281DD12168104801
:1054C00088632068C16B21F49D71C163A06B40F0BB
:1054D0008040A0632046FDF791FC062801D00528F6
:1054E00005D12068FFF724FEA16B0843A0630120CB
:1054F00084F83400002020632046FDF79FFB10BD98
:10550000FF05400010B5846B206B822809D120680C
:10551000FFF70EFE28B1A16B0143A1632046FDF702
:105520008DFB2068C16A21F00801C162216840F248
:105530003A508863012084F834000020206320461C
:10554000FDF7D8FE10BD10B5846B40F23A502168CB
:1055500088632046FDF752FC012184F834100021B5
:105560002163062801D0052805D12068FFF7E0FD5A
:10557000A16B0843A063A06B0028204602D0FDF772
:105580005DFB10BDFDF7CAFA10BD806B0068C16BF2
:1055900041F48071C163704710B5846B40F23A509A
:1055A000216888632046FDF729FC012184F8341026
:1055B00000212163062801D0052805D12068FFF7C6
:1055C000B7FDA16B0843A063A06B0028204602D062
:1055D000FDF734FB10BDFDF7A1FA10BD2DE9F04732
:1055E00088B00D460446FCF7E3FC00268246009690
:1055F0000196374608212068FFF768FC00282CD167
:10560000B4F8500001042068FFF72CFC002824D1D6
:10561000401E4FF00808CDE9020830204FF0020983
:10562000CDE904090120CDE9067002A92068FFF741
:10563000CCFB2068FFF733FD00280ED16F462068B1
:10564000416B11F02A0F0BD0416B090702D4416B5B
:1056500089051AD5C0F83880082008B0BDE8F08761
:10566000416B890205D5FFF7E5FB47F82600761C5C
:1056700002E0416B8904E7D5FCF79AFCA0EB0A0035
:10568000401CDCD14FF00040E7E7416B890703D5B0
:10569000C0F838900220E0E7416B890603D520214D
:1056A00081630846D9E740F23A518163019800BA14
:1056B0002860009800BA68600020CEE710B590B06E
:1056C00004460120ADF838002068FFF790FB002861
:1056D00054D0606C032842D02068FFF7B4FC002847
:1056E0004AD100212068FFF786FB6067042120680B
:1056F000FFF781FBA06708212068FFF77CFBE067CC
:105700000C212068FFF777FBC4F88000606C032849
:1057100025D00EA92068FFF7F3FC00282CD1606C7F
:1057200003281CD0BDF83800206501042068FFF76D
:10573000A0FC002820D100212068FFF75CFB6066F8
:1057400004212068FFF757FBA06608212068FFF7B7
:1057500052FBE0660C212068FFF74DFB2067042117
:105760002068FFF748FB000DE06403A92046FDF721
:1057700067FA30B14FF0805010B010BD4FF080602C
:10578000FAE7B4F85000002302042068FFF742FC57
:105790000028F1D104F1100007C88DE8070094E853
:1057A0000F00FFF731FB0020E6E700002DE9F84F7E
:1057B0000026044600963546B0460068FFF7B8FB61
:1057C000002827D12068FFF7DBFB4FF0805B4FF00C
:1057D00001094FF6FF7748B1A6642068FFF7A8FBE0
:1057E000002817D1A06C012802D020E0C4F848900E
:1057F00000212068FFF736FB58B918E00021206827
:10580000FFF730FB002805D151462068FFF744FB25
:1058100010B15846BDE8F88F00212068FFF7EBFA79
:1058200005464FEAD0780098401C009002E0DFF86F
:105830002CA00098B84202D2B8F1000FDED0009838
:10584000B84202D34FF08070E4E7680002D5C4F894
:10585000449000E066640020DCE70000000010C116
:1058600070B5104C05460120207025F0D3FA0228AF
:1058700016D1FBF7D7FD18B92846FFF7EFFD2070CA
:10588000207801280CD0606850B9002202210A203B
:1058900025F038FB606018B9207840F001002070D6
:1058A000207870BD7403002010B5124888B01446EB
:1058B0000078C00702D0032008B010BDC1B1012993
:1058C00005D0022908D003290CD00420F4E768464B
:1058D000FBF796FD06980AE06846FBF791FD0798EE
:1058E000208005E06846FBF78BFD0798400A2060A2
:1058F0000020E1E7740300202DE9F84347F230541B
:105900001E461746884601252046FFF7B7FD0028AA
:105910001EDB324639464046FBF7A4FDC0B90F48AE
:10592000234600226946406825F0BAFA80B9BDF8DE
:10593000000001280CD125F07DFA064603E000BFE7
:10594000FBF764FD38B125F075FA801BA042F7D350
:105950002846BDE8F8830025FAE70000740300201C
:10596000FFF77CBD2DE9F84347F230541E46174639
:10597000884601252046FFF781FD00281EDB3246C0
:1059800039464046FBF78AFDC0B90F48234600223E
:105990006946406825F084FA80B9BDF80000022805
:1059A0000CD125F047FA064603E000BFFBF72EFDB9
:1059B00038B125F03FFA801BA042F7D32846BDE856
:1059C000F8830025FAE70000740300201F4FDFF87A
:1059D00080A0204D204E214CDFF88480DFF8849099
:1059E0004FF4007B59462048FCF7D5FA19491A486C
:1059F00005F0C6FD387868B92B781CA21D48DAF886
:105A00000010FBF7D5FE33781BA21A48DAF8001015
:105A1000FBF7CEFE4FF0FF3120682EF0F3FC32781A
:105A200017A1D8F800001BF068FF2A781AA1D9F84E
:105A300000001BF062FF00231A46194620682EF072
:105A400099FA41F288302DF08BFFCBE784030020D8
:105A50001401002001C0012000C00120040000202A
:105A600030040020340400200014024048756D69A1
:105A7000000000003A54002054656D7000000000E2
:105A8000E5BD93E5898DE6B8A9E5BAA6EFBC9A25F0
:105A900064E2848300000000E5BD93E5898DE6B9EA
:105AA000BFE5BAA6EFBC9A2564EFBC8500000000F4
:105AB00010B54FF0E02000692EF0F2FD012803D070
:105AC000BDE810402EF09CB910BD000030B593B079
:105AD00030216846FAF734FC14210CA8FAF730FCA0
