:020000040800F2
:10000000086501206102000887370008F731000801
:100010008537000801070008794C0008000000003F
:10002000000000000000000000000000A101000826
:10003000E507000800000000FD0100084944000831
:100040007B0200087B0200087B0200087B0200089C
:100050007B0200087B0200087B0200087B0200088C
:100060007B0200087B0200087B0200087B0200087C
:100070007B0200087B0200087B0200087B0200086C
:1000800005070008110700087B0200087B02000832
:100090007B0200087B0200087B0200087B0200084C
:1000A0007B0200087B0200087B0200087B0200083C
:1000B0007B0200087B020008114500087B02000853
:1000C0007B0200087B0200087B0200087B0200081C
:1000D0007B020008554C0008614C00087B020008B8
:1000E0007B0200087B0200087B0200087B020008FC
:1000F0007B0200087B0200087B0200087B020008EC
:100100007B020008553800087B0200087B020008CB
:100110000D4800087B0200081D4500087B0200080E
:100120007B0200081D0700082907000835070008A2
:100130007B0200087B0200087B0200087B020008AB
:100140007B0200087B0200087B0200087B0200089B
:100150007B0200087B0200087B0200086D4C00084F
:100160007B0200087B0200087B0200087B0200087B
:100170007B0200087B0200087B02000800000000F0
:100180007B0200087B020008DFF810D000F010FAB4
:100190000048004711710208AFF300800865012094
:1001A0002C4B19680868B0E8F04F80F30988BFF35A
:1001B0006F8F4FF0000080F311887047000000003F
:1001C00008480068006880F308884FF0000080F35A
:1001D000148862B661B6BFF34F8FBFF36F8F00DF35
:1001E00000BF00BF08ED00E0DFF80C00016841F43B
:1001F00070010160704700BF88ED00E0EFF30980F7
:10020000BFF36F8F134B1A681EF0100F08BF20ED5D
:10021000108A20E9F04F106009B44FF0500080F3CD
:100220001188BFF34F8FBFF36F8F2EF0F5FF4FF0A4
:10023000000080F3118809BC19680868B0E8F04F25
:100240001EF0100F08BFB0EC108A80F30988BFF3CE
:100250006F8F704724000020EFF305807047000087
:100260000648804706480047FEE7FEE7FEE7FEE750
:10027000FEE7FEE7FEE7FEE7FEE7FEE701450008D2
:10028000890100082DE9F05F0546002092469B4653
:1002900088460646814640241BE02846414647469C
:1002A000224600F017F953465A46C01A914110D31E
:1002B00011461846224600F0FEF82D1A67EB010899
:1002C0004F4622460120002100F0F5F817EB000907
:1002D0004E41201EA4F10104DFDC484631462A4687
:1002E0004346BDE8F09F10B5431A934209D28318E4
:1002F000881803E010F8011D03F8011D521EF9D201
:1003000010BD40EA01039B0703D009E008C9121F92
:1003100008C0042AFAD203E011F8013B00F8013BBF
:10032000521EF9D210BDD2B201E000F8012B491ED5
:10033000FBD270470022F6E710B513460A46044682
:100340001946FFF7F0FF204610BD421C10F8011BB4
:100350000029FBD1801A704710B5002200E0521C22
:10036000835C8C5CA34201D1002BF8D1D8B2E1B2FE
:10037000401A10BD034611F8012B00F8012B002A8A
:10038000F9D1184670472DE9FE4F81EA030404F0C5
:10039000004421F0004100944FF0000B23F0004393
:1003A00050EA01045ED052EA03045BD0C3F30A545E
:1003B000C1F30A552C44A4F2F3340194A0FB025477
:1003C000C1F3130141F48011C3F3130343F4801309
:1003D00001FB024400FB034E840A970A44EA81545D
:1003E00047EA8357A4FB076802958D0A05FB07853A
:1003F0004FEA932C04FB0C542705029D4FEA065844
:1004000047EA1637B5EB08056EEB070C870E920E20
:1004100047EA811742EA8312A7FB0201B6EB0B0100
:1004200064EB00042B0D43EA0C335E1844EB1C50C4
:10043000DA465146E7FB0201C5F313044FEA0B33DA
:1004400043EA14534FEA0432019C43EA0603A4F141
:100450000C040294009CCDE900B400F05AF803B0FB
:10046000BDE8F08F00200146F9E70EB540F23341B8
:1004700002910021CDE900110A460B4600F049F82F
:1004800003B000BDC1F30A5210B5C1F3130140F22D
:10049000FF3341F480119A4201DA002010BD40F28E
:1004A00033439A42A2F2334203DC524200F012F884
:1004B00010BD904010BD202A04DB203A00FA02F162
:1004C000002070479140C2F1200320FA03F3194342
:1004D00090407047202A04DB203A21FA02F00021E4
:1004E000704721FA02F3D040C2F120029140084344
:1004F0001946704710B5141E73F1000408DA401C49
:1005000041F1000192185B411A4301D120F0010032
:1005100010BD2DE9F04D92469B4611B1B1FA81F222
:1005200002E0B0FA80F220329046FFF7C4FF0446A2
:100530000F4640EA0A0041EA0B0153465A46084377
:1005400013D0114653EA010019D0C8F140025046B9
:10055000FFF7C0FF05460E46504659464246FFF794
:10056000AAFF084305D0012004E020463946BDE833
:10057000F08D0020054346EAE0762C4337430A9885
:100580006305E40AA0EB08000022FD0A44EA475490
:100590000A3002D500200146E9E70105101969413A
:1005A000DDE9084500196941BDE8F04DA2E700000A
:1005B000064C074D06E0E06840F0010394E80700B0
:1005C00098471034AC42F6D3FFF7E2FDD4AA0608F0
:1005D000F4AA060870B58C1810F8015B15F0070333
:1005E00001D110F8013B2A1106D110F8012B03E0CC
:1005F00010F8016B01F8016B5B1EF9D12B0705D4D4
:100600000023521E0DD401F8013BFAE710F8013B1C
:10061000CB1A921C03E013F8015B01F8015B521E38
:10062000F9D5A142D8D3002070BD704701460148DA
:1006300001F0C6BB3005002010B5044801F0D2FB24
:10064000042801D0012010BD002010BD300500207D
:1006500010B500F015F8012801D0012010BD0748A1
:1006600001F0DAFC040006D14FF40061034801F008
:100670004DFA00B10124204610BD000030050020D5
:1006800008B501208DF800009DF8000008BD0000AD
:10069000134610B50A4601460024034801F08CFDBC
:1006A00000B10124204610BD3005002008B501200E
:1006B000ADF80000034800231A466946406827F059
:1006C00089FC08BD28030020134610B50A460146E0
:1006D0000024034801F00AFE00B10124204610BDA9
:1006E0003005002008B50220ADF8000003480023C3
:1006F0001A466946406827F06DFC08BD28030020B3
:10070000FEE70000014800F065B900002408002061
:10071000014800F05FB9000084080020014800F0A3
:1007200059B90000E4080020014800F053B9000066
:10073000C4070020014800F04DB90000B4050020B6
:1007400001681823CAB2103AB2FBF3F2054B6FF3FB
:100750000901032A9B5CC36500D9091D8165084610
:10076000704700002401030810B5014600208B6982
:100770008A6A4FF0C07453B1B3F5005F15D072B1FF
:10078000012A0CD0022A0AD0032A09D104E01AB1A6
:10079000012A06D0022A03D1C96AC90100D5012065
:1007A00010BDC96AA142FAD010BD002AF7D0012AB3
:1007B000F2D0022AF3D0032AF3D010BD30B504687A
:1007C000256825F480252560046863608368402BD4
:1007D000036803D099600068C26030BD9A60006809
:1007E000C16030BD704772B6FEE70022AFF30080F3
:1007F00030B50E4B054601205C7A002C14D1587A96
:100800001C54587A03EB800045605D7A03F10800C0
:100810002A54587A421C5A72303008703A20487074
:100820002F208870CC70002030BD0000FC540120C7
:1008300030B5B3F5804F05D06FF0704140F822100D
:10084000002030BD8C690B688D6823434C68898912
:10085000240144EA0524234343EA014150F82230AD
:10086000014C23401943E9E70000F0CF10B50A68B6
:1008700050F8223023F0010340F822308C68082C15
:1008800023D000234A682243CC681C430B692243CF
:100890001A434B690E4C1A43CB691A430B6A1A432D
:1008A0004B6A1A438B6A1A43CB6A1A430B6B1A437F
:1008B0008B691343CA6B09681A4350F82130A3436C
:1008C000134340F82130002010BD4023DAE7000038
:1008D0007FFF0F0030B5D1E9003443EA04138C6880
:1008E0008D89240244EA054423430C8A094D00EB18
:1008F000820005EB045423430C7D6D0105EB046479
:10090000896923430B43416801F040410B43436035
:10091000002030BD0000F0FF2DE9F0410446876D56
:1009200000F03AFB064694F835000025022806D070
:100930008020606584F834500120BDE8F081206893
:10094000016821F0160101602068416921F08001F1
:100950004161206C08B9A06C20B12068016821F0C9
:10096000080101602068016821F0010101600CE0CC
:1009700000F012FB801B052807D9202060650320AA
:1009800084F8350084F83450D7E720680068C00741
:10099000EED194F85C103F208840B860012084F8C4
:1009A000350084F834500020C7E790F8351002294C
:1009B00003D08021416501207047052180F8351062
:1009C0000068016821F00101016000207047406D5E
:1009D000704700002DE9F84304464FF00009CDF8B8
:1009E000009063484FF41651A56D0068B0FBF1F715
:1009F0002E6894F85C10082000FA01F131420FD003
:100A000021680A6852070BD50A6822F004020A60BE
:100A100094F85C108840A860606D40F0010060654B
:100A200094F85C104FF0010808FA01F0304208D049
:100A300021684969090604D5A860606D40F002008C
:100A4000606594F85C1004208840304208D021682A
:100A50000968890704D5A860606D40F004006065EE
:100A600094F85C1010208840304218D02168096842
:100A7000090714D5A86020680168490304D50068F7
:100A8000000308D5A16C07E00168C90503D401681B
:100A900021F008010160216C09B12046884794F8D3
:100AA0005C1020208840304231D021680968C90696
:100AB0002DD5A86094F8350005282068016806D077
:100AC000490347D5006800031DD4616C1CE021F088
:100AD000160101602068416921F080014161206CAC
:100AE00008B9A06C20B12068016821F008010160FC
:100AF00094F85C103F208840A86084F8358084F822
:100B00003490216D1FE0E16B09B120468847606D8C
:100B100000282BD0606DC00714D0052084F8350064
:100B20002068016821F0010101600098401C0090DC
:100B3000B84203D820680068C007F6D184F8358031
:100B400084F83490E16C002910D001B02046BDE853
:100B5000F04308470168C905D5D4016821F01001A8
:100B6000016084F8358084F83490CCE7BDE8F883E0
:100B7000200000202DE9F041044600F00DFA064661
:100B80005CB1022084F83500002584F834502068D8
:100B9000016821F0010101600DE00120BDE8F08154
:100BA00000F0FAF9801B052805D920206065032094
:100BB00084F83500F2E720680068C007F0D12268A9
:100BC000116820480140D4E901031843D4E90336F1
:100BD0003343184363691843A3691843E36918430F
:100BE000236A18430843616A042903D1D4E90B132B
:100BF00019430843106020684069666A20F00701C5
:100C000030460E43012704280CD1A06A0643E06A4F
:100C100040B12046FFF7A8FD20B14020606584F870
:100C20003570BAE7206846612046FFF789FD94F8E1
:100C30005C203F2191408160656584F8357000201B
:100C4000ACE700003F8010F02DE9F0410446866DCE
:100C500090F83400002501280DD0012084F83400DC
:100C600094F835700020012F07D084F83400022555
:100C70002846BDE8F0810220FBE7022784F83570A2
:100C800060652046FFF79AFD94F85C103F2088408D
:100C9000B0602068016841F016010160206C20B14D
:100CA0002068016841F0080101602068016841F096
:100CB00001010160DCE7000070B5044600F06CF94A
:100CC0000546601C02D004480078044400F064F932
:100CD000401BA042FAD370BD140000202DE9F04162
:100CE00086B014216846FFF725FB204801680029DB
:100CF00039D1012101601E480024016841F0010141
:100D0000016000684FF4805800F001000C27CDF816
:100D10000080CDE90470032602250396CDE9015435
:100D20006946144800F02EF84FF68070CDE90005B2
:100D300002AA694682E8D0000F4800F023F84CF27E
:100D40003370CDE9000502AA694682E8D0000B485D
:100D500000F018F802AA694682E8D000CDE90085C3
:100D6000074800F00FF806B0BDE8F0810C00002045
:100D7000383802400014024000100240000C0240CB
:100D8000001802402DE9F84FDFF8BCA10022012530
:100D900003264FF00F090AF1040BAAF1040E00BF5D
:100DA0000B6805FA02F42340A34270D10F7907F0D3
:100DB0000307012F01D0022F16D187684FEA42089E
:100DC00006FA08FC27EA0C07D1F80CC00CFA08FC5C
:100DD0004CEA070CC0F808C04768A7430C79C4F375
:100DE000001494403C4344600C79E443A4070AD0C7
:100DF000C4684FEA420C06FA0CF7BC438F6807FA46
:100E00000CF72743C7600C7904F00304022C12D1BD
:100E1000D40800EB840CDCF820405707FF0E09FAD9
:100E200007F824EA0804D1F8108008FA07F848EA1D
:100E30000408CCF8208004684FEA420C06FA0CF74C
:100E4000BC430F7907F0030707FA0CF72743076045
:100E50004C6814F4403F70D03C4C276847F48047FE
:100E60002760246822F0030704F480440094384C7F
:100E700007EB040CDCF8084897074FEA177809FAE3
:100E800008F7BC43334FB84202D1002724E054E0B6
:100E9000314FB84201D101271EE0304FB84201D195
:100EA000022719E02E4FB84201D1032714E02D4F3D
:100EB000B84201D104270FE02B4FB84201D10527DA
:100EC0000AE02A4FB84201D1062705E0284FB84270
:100ED00001D1072700E0082707FA08F72743CCF8D5
:100EE0000878DAF800405746D1F804C09C435FEA1E
:100EF000CC2C00D51C433C60DBF800405F46D1F8A9
:100F000004C09C435FEA8C2C00D51C433C60DEF897
:100F100000407746D1F804C09C435FEA8C3C00D582
:100F20001C433C60084F083F3C68D1F804C09C4318
:100F30005FEACC3C00D51C433C60521C102AFFF4F5
:100F40002FAFBDE8F88F0000083C01404438024054
:100F5000003001400000024000040240000802404E
:100F6000000C024000100240001402400018024031
:100F7000001C02400069084000D00120704742690F
:100F800021EA02030A4043EA0241816170470AB143
:100F9000816170470904FBE70148806870470000E1
:100FA0001400002002488168027811448160704773
:100FB000140000200B4810B5016841F40071016075
:100FC000016841F480610160016841F48071016051
:100FD000032000F09FF80F2000F006F800F050F812
:100FE000002010BD003C024030B505461F4887B0C8
:100FF0000024016841F010010160006806A900F0BA
:101000001000009001A800F0CFF90498A8B100F0FA
:10101000EBF940001649174AB0FBF1F11648491E9A
:10102000026040F2E732C0E90324C0E901148461A0
:1010300001F066FA040003D015E000F0D5F9E9E705
:101040000D4801F0A9FA04000DD1362000F034F863
:10105000102D07D200222946362000F03BF8074821
:10106000056000E0012407B0204630BD4038024052
:1010700040420F00001000408009002018000020AE
:101080000C4882B0016841F480410160006800F4BE
:10109000804000900748001F016841F080510160C6
:1010A0000068002200F0805000900F21901E02B0D6
:1010B00000F010B844380240002809DB00F01F029D
:1010C000012191404009800000F1E020C0F80011AA
:1010D00070470000F0B40E4B1B680C46C3F30223AC
:1010E000C3F10705042D00D90425191D072901D2D4
:1010F000002300E0DB1E012606FA05F1491E21400F
:1011000099409E40761E16403143F0BC03F0B5BDB9
:101110000CED00E0064900F0070208684FF6FF03F7
:10112000184040EA0220034A10430860704700005C
:101130000CED00E00000FA052DE9F84305460068D3
:101140004FF00109C1074FF0000601D1400727D534
:10115000DFF80C81C8F86860FFF71EFF0746414CB6
:1011600005E000BFFFF718FFC01B022857D8206812
:101170000001F7D468688101287A41EA0070394992
:1011800084310860C8F86890FFF706FF074604E05E
:10119000FFF702FFC01B022841D820680001F7D5E5
:1011A0002878800752D52F484030016841F080519F
:1011B000016000682C4C00F080500090206840F4E2
:1011C00080702060FFF7E8FE074604E0FFF7E4FECA
:1011D000C01B022823D82068C005F7D5214C7034E5
:1011E000206810F4407020D0A98901F44071814238
:1011F0001BD020681D4920F44070C1F800900E609B
:1012000020602068C00710D0FFF7C6FE064641F2F6
:10121000883707E0FFF7C0FE801BB84202D90320E1
:10122000BDE8F88320688007F4D5E9680D48C1F36C
:1012300001220830032A0BD0016821F4F811016063
:101240002068A989C1F30B01084320600020E7E76B
:101250000268074B22F4F81219400A430260EFE7D4
:10126000000047420038024000700040400E4742F4
:10127000FFFCFF0F2DE9F0470E46050065D0DFF8B3
:101280001481D8F80000F7B200F00700B04207D28E
:1012900088F80070D8F8000000F00700B04254D180
:1012A00028683D4C810712D5400703D5206840F4DB
:1012B000E05020602878000703D5206840F46040A3
:1012C00020602068A96820F0F0000843206028789A
:1012D000C0072DD0304968680839012812D002288B
:1012E00013D0032811D00968890700292DDA216855
:1012F00021F0030101432160FFF74EFE814641F2D8
:10130000883A0EE009688903EFE709688901ECE78C
:10131000FFF742FEA0EB0901514502D90320BDE8C9
:10132000F0872068696800F00C00B0EB810FEFD106
:10133000D8F80010404601F00701B14207D9077004
:10134000006800F00700B04201D00120E7E72878EC
:10135000400705D52068E96820F4E0500843206084
:101360002878000706D52068296920F4604040EA03
:10137000C100206000F058F82168084AC1F3031149
:10138000515CC8400649086006480068FFF72CFE1B
:101390000020C4E7003C0240083802402C0103084A
:1013A00020000020180000200F2202600C4A136861
:1013B00003F003034360136803F0F00383601368D2
:1013C00003F4E053C36012684FF4E05303EAD2021F
:1013D00002610448006800F00700086070470000E0
:1013E00008380240003C024004480549006809688A
:1013F000044AC1F38221515CC8407047200000209C
:10140000083802403C01030804480549006809689F
:10141000044AC1F34231515CC840704720000020AB
:10142000083802403C010308154810B5006810F068
:101430000C02144813D04110042A0FD0082A0ED1F0
:101440000F4C241F2268236802F03F025B0207D57D
:101450002068C0F38810A0FB010106E0084610BD1B
:101460002168C1F38811A1FB00010023FEF70AFFE8
:101470002168C1F30141491C4900B0FBF1F010BDE6
:10148000083802400024F4002DE9F84F04006ED023
:101490002078DFF84C93C007A9F104054AD009F180
:1014A00004000168C1F38101012908D00068C0F37C
:1014B000810002280AD1D9F80000400206D5286828
:1014C000800337D560680028E1D033E06068B0F56C
:1014D000803F10D0B0F5A02F286810D020F48030C5
:1014E0002860286820F4802028606068A8B1FFF791
:1014F00053FD06460DE0286840F48030F4E740F4E0
:1015000080202860F7E700BFFFF746FD801B6428B6
:1015100073D828688003F7D50CE0FFF73DFD064639
:1015200005E000BFFFF738FD801B6428F0D828686D
:101530008003F7D42078DFF8AC8280074FF0000AF0
:101540003ED5A748001D016811F00C0F08D00068B7
:10155000C0F3810002280BD1D9F80000400207D463
:101560002868800716D5E068012800D112E033E131
:10157000E068B8B10120C8F80000FFF70DFD06468D
:1015800005E000BFFFF708FD801B0228C0D82868CF
:101590008007F7D52868216920F0F80040EAC100EB
:1015A00028600DE0C8F800A0FFF7F6FC064604E04E
:1015B000FFF7F2FC801B02281FD828688007F7D4A9
:1015C0002078000722D5864F87486169703771B14E
:1015D00001210160FFF7E0FC064604E0FFF7DCFCB8
:1015E000801B022809D838688007F7D50EE0C0F8BC
:1015F00000A0FFF7D1FC064605E082E0FFF7CCFC37
:10160000801B02287DD838688007F7D420784007EF
:1016100068D5DFF8CCB100270BF13C0BDBF80000FC
:10162000C0000BD4DBF8001041F08051CBF8001063
:10163000DBF80000012700F0805000906B4E30680E
:10164000C00510D4306840F480703060FFF7A4FC0F
:10165000009005E0FFF7A0FC0099401A022850D83E
:101660003068C005F6D55E4EA0686C3601280FD0F4
:101670000528306810D020F001003060306820F07C
:1016800004003060A068B8B1FFF786FC00900FE05E
:10169000306840F00100F4E740F004003060F7E704
:1016A000FFF77AFC0099411A41F28830814266D8EE
:1016B00030688007F4D50EE0FFF76EFC009007E07D
:1016C000FFF76AFC0099411A41F28830814256D8EE
:1016D00030688007F4D42FB1DBF8001021F080517E
:1016E000CBF80010A069C8B33D49091D0968C1F3D2
:1016F000810102294AD00228504607D0C8F860006C
:1017000000E03CE0FFF748FC04463BE04746C8F8F1
:101710006000FFF741FC064605E000BFFFF73CFC18
:10172000801B02282BD828688001F7D4D4E9070150
:101730000843A16A2E4A490802EB0141626A41EA64
:101740008211084394F82C1040EA0161C9F8001096
:1017500001203866FFF720FC044606E03EE000BFAB
:10176000FFF71AFC001B022809D828688001F7D56A
:1017700034E000BFFFF710FC001B022802D9032051
:10178000BDE8F88F28688001F4D427E00128F7D05D
:10179000D9F80000E26900F4800191421CD1226A6C
:1017A00000F03F01914217D147F6C071626A0140D3
:1017B000B1EB821F10D1A26A4FF0FF3300F4403129
:1017C00003EB5202B1EB024F06D194F82C1000F05B
:1017D0007060B0EB016F01D00120D1E70020CFE7AE
:1017E0000438024000004742800E4742007000402B
:1017F0000000FFFF0068503050F82100704700687B
:10180000503040F82120704710B500680B46416801
:101810000D480140080CD870C1F304245C7001F03D
:101820003F049C70C1F34231197052B901F0ACFF12
:10183000D870587801F0A8FF5870987801F0A4FF8C
:101840009870002010BD00003FFFFF0010B50B4650
:101850000168896A596001680969C1F30E019960DC
:10186000006801680D480140C1F305401870C1F3DC
:1018700006245C7001F07F049C70890DD97052B908
:1018800001F082FF1870587801F07EFF5870987848
:1018900001F07AFF9870002010BD00007F7F7F006C
:1018A00010B5040002D0607F10B106E0012010BD29
:1018B00000202077204600F041F802206077206861
:1018C000C168C943C90632D5CA2141622168532083
:1018D0004862204601F06CFF20BB20688168164AF0
:1018E000114081602168886862681043D4E904234C
:1018F0001A43104388602168E06808612068016924
:10190000228941EA02410161204601F075FF48B990
:1019100021680A6C22F480220A6421680A6CA36997
:101920001A430A642268FF21516208B110BD0020E9
:101930000121617710BD0000BFFF8FFF1FB500219F
:1019400000910191029103910068084988420CD1ED
:1019500002200090C00103906846FFF7EDFB08B13C
:10196000FEF741FF0249012008601FBD002800402A
:101970003C0E474270B50446007F0B46012819D043
:101980000126267702206077B2B19878D97840EAAC
:10199000014558781978000240EA41300543216832
:1019A000CA204862216853204862204601F000FFA7
:1019B000D0B122E0022070BD5878C10603D500F0F6
:1019C000EF000A305870D87801F0E7FE020458782A
:1019D00001F0E3FE42EA0022987801F0DEFE0243C5
:1019E000187842EA4035DAE7074805402068456044
:1019F000204601F001FF00B966772268FF2151629D
:101A00000021217770BD00003FFFFF002DE9F0416C
:101A10000446007F0D46012823D04FF0010884F8CA
:101A20001C80022060772068002780684FEA4060B1
:101A3000D2B1002800DBEF70A878297840EA01468F
:101A40006878E978000240EA815006432168CA209C
:101A50004862216853204862204601F0A9FEB8B1CF
:101A60002CE00220BDE8F081002800DBEF70287830
:101A700001F093FE0204687801F08FFE42EA002232
:101A8000A87801F08AFE0243E87842EA8056DDE752
:101A90000D480640206806602068816821F4802196
:101AA0008160D5E90301084321688A681043886092
:101AB000204601F0A1FE08B984F81D802268FF21AC
:101AC00051622777CEE700007F7F7F0070B5044624
:101AD0000B482168C860FFF75FFA05464FF47A7635
:101AE00007E000BFFFF758FA401BB04201D90320BE
:101AF00070BD2068C0688006F4D5002070BD00006D
:101B00005F7F010010B5FEF790FD10BD2DE9FE438B
:101B10000446002603200D4684F83400606C032838
:101B20005ED0B5F5805F5BD04FF4006700204FF0CA
:101B30008068BD421FD1814600900190002120683D
:101B400001F085FE800113D46946204602F072FA46
:101B500007000DD10198400334D5B4F850000104BA
:101B6000206801F0ABFE070002D10221206823E0CB
:101B7000A06B384328E01DB1A06B40F0006023E06B
:101B80008146009001900021206801F060FE8001F4
:101B9000EED46946204602F04DFA0700E8D10198DC
:101BA000C0030FD5B4F850000104206801F086FE90
:101BB0000700DDD10021206801F0CDFE0700D7D15C
:101BC0004F46D5E74746D3E7A063A06B144F4FF0CD
:101BD000010848B12068876384F8348001260EE04C
:101BE000A06B40F08050EFE7211DD4E9050C0EC931
:101BF000CDE90050CDF808C0206801F031FE4FF467
:101C00000071206801F08EFE28B121688F63A16BFE
:101C10000143A163012684F834803046BDE8FE8389
:101C2000FF05400070470000F0B5426E920F0A7049
:101C3000426EC2F383624A70426EC2F301628A70DE
:101C4000426E120CCA70B0F86420120A0A7190F841
:101C500064204A71826E120DCA80826EC2F3034202
:101C60000A72B0F86820C2F3C0324A72B0F8682035
:101C7000C2F380328A72B0F86820C2F34032CA726E
:101C8000B0F86820C2F300320A7300264E73426C2B
:101C90004FF40075012462B1012A3AD00268474925
:101CA0009163816B41F08051816380F83440012061
:101CB000F0BDB0F86820C36E9205120D42EA93722F
:101CC0000A61C26EC2F3C2620A75C26EC2F30262D8
:101CD0004A75C26EC2F342528A75C26EC2F3824224
:101CE000CA75C26EC2F3C2320A760A69521C4265D4
:101CF0000B7E03F007039B1C9A4042650B7A03F0AE
:101D00000F0704FA07F383655B0A5A43C0E91725F6
:101D10000EE090F86820C36E9206920A42EA1342DF
:101D20000A610A69521C92024265C0E916520566B0
:101D300030F86C2FC2F3803201F8192F0288C2F3F9
:101D4000C6124A70027802F07F028A704268D20F8F
:101D5000CA704268C2F341720A714268C2F3826279
:101D60004A714268C2F383528A714268C2F3405298
:101D7000CA710E724268C2F300424A728288C2F38C
:101D8000C0328A728288C2F38032CA728288C2F3F9
:101D900040320A738288C2F300324A738288C2F3E7
:101DA00081228A738288C2F30122CA730079C0F348
:101DB000460008744C740020F0BD0000FF05400090
:101DC000426C0A60826C4A60C26C8A60026DCA60B2
:101DD000426D0A61826D4A61C26D8A61006EC8619E
:101DE0000020704770B50446B0F85000002501048B
:101DF000206801F098FE18B1A16B0143A16304E0D3
:101E00000021206801F023FD0546C5F3432070BD85
:101E1000F8B5056B04460068416B09041BD529071A
:101E200019D5D4E90A56002E14D00027206801F0F5
:101E30002DFD05F8010B010A05F8011B010C05F841
:101E4000021B000E361F7F1C05F8010C082FEDD376
:101E5000C4E90A56F8BD416B4FF00006C9054FF0C2
:101E6000010744D5390281632068C16B4CF23A32D4
:101E70009143C1632068C16A21F00101C162280752
:101E80001DD515F0220F09D0206801F07DFE28B184
:101E9000A16B0143A1632046FFF7C4FE216840F215
:101EA0003A50886384F834702663A80703D020462C
:101EB00000F014FAF8BD204600F014FAF8BD280628
:101EC000FCD5A80609D5206801F05EFE28B1A16BFB
:101ED0000143A1632046FFF7A5FEA807EED12068C5
:101EE000C16A21F00801C16284F83470E3E7416BF4
:101EF000490424D5290722D5D4E90856002EDDD07F
:101F00005FF0000715F8010B009015F8011B361F54
:101F100040EA0120009015F8021B40EA01400090C1
:101F200015F8011C40EA016000906946206801F044
:101F3000C0FC7F1C082FE5D3C4E90856F8BD416BEF
:101F400040F23A221142F9D0416B890703D5A16BC7
:101F500041F00201A163416B090703D5A16B41F078
:101F60000801A163416B890603D5A16B41F02001F3
:101F7000A163416BC90603D5A16B41F01001A163B8
:101F8000416B890503D5A16B41F00801A16340F2C3
:101F90003A7181632068C16B40F23A329143C16368
:101FA000206801F0F1FDA16B0843A063280706D566
:101FB00084F8347026632046FFF734FEF8BD280607
:101FC000FCD515F0300F0CD0E16B11480865E06BC3
:101FD000FEF7EBFC0028F1D0E06BBDE8F84002F022
:101FE00007B8A8070CD0216C0A480865206CFEF7DA
:101FF000DCFC0028E2D0206CBDE8F84001F0CFBF47
:10200000A66384F8347026632046FFF77BFDF8BD95
:10201000F13F00089F3F000870B504000ED094F80F
:102020003400002518B92577204600F04FF803202A
:1020300084F83400204600F00BF808B1012070BD90
:10204000A5632563012084F83400002070BD0000E2
:10205000FEB50025044676200095CDE901502946BD
:102060000B460A46206801F0FBFB48BB154E46F8BC
:10207000A05F206801F006FC012535600220FEF714
:102080001BFE204602F0BEF830B100BF84F8345089
:10209000A16B0143A16313E0204602F03BF8002846
:1020A000F4D14FF40071206801F03CFC002808D006
:1020B000226805499163A16B0143A16384F8345000
:1020C0000120FEBD00802542FF0540002DE9F043C0
:1020D00087B0054614216846FEF72CF93049286878
:1020E00088425AD12F480026016841F400610160FE
:1020F00000682C4900F4006014390590086840F02D
:1021000004000860086800F004000590086840F0CA
:10211000080008600868022400F0080005904FF4E9
:10212000F85003274FF00C088DE8D10169461E488E
:10213000FEF728FE4FF0040901AACDF8009082E8CE
:10214000D00169461948FEF71DFE1A4C1848206058
:102150004FF00060C4E901064014C4E90360800048
:1021600060618000A0612020E0610003C4E90809EB
:102170008001C4E90A70801020632046FEF7FAFC53
:1021800008B1FEF730FB2C64002205213120A56345
:10219000FEF7A0FF3120FEF78FFF07B0BDE8F08308
:1021A000002C01404438024000080240000C02406C
:1021B00058640240B40500202DE9F04786B01F4660
:1021C0000446154639B194F83400012807D002209E
:1021D00006B0BDE8F087A06B40F0006008E000208A
:1021E000A063E36DEA199A4204D9A06B40F0007035
:1021F000A06369E0032284F8342022688146D0621B
:102200002268D36B40F22A363343D363236C2F4AC0
:10221000DA63236C2E4ADA64226C1065226C9060BB
:10222000206C0068026822F0C002026020680A4642
:10223000266C4FEA472800F180014FEA98033046A8
:10224000FEF702FDDFF88CA0012670B12068C16B9B
:1022500021F49571C1632168C1F838A0A06B40F0EA
:102260008040A06384F834602EE01B480660606CF8
:10227000012800D06D024FF0FF30CDE9000890201A
:10228000029002200596CDE903096946206801F015
:10229000C8FA012F06D9822020632946206801F060
:1022A000B3FB05E0812020632946206801F0C5FBCF
:1022B00000288DD02268C2F838A0A16B0143A16329
:1022C00084F83460C4F83090012081E75D3F000855
:1022D000F93E0008FF0540008C85254210B5FEF749
:1022E000E5F910BD10B5FEF7FDF910BD2DE9F04F71
:1022F0005FEA010B87B01E460446114607D094F8EA
:102300003400012807D0022007B0BDE8F08FA06B91
:1023100040F0006008E00025A563E26D8819904256
:1023200004D9A06B40F00070A06356E0032084F84D
:1023300034002068C5622068C26B40F21A2942EA64
:102340000902C263E26B2D48D063E26B2C48D06473
:10235000E06B0565606C012800D049024FF09008E1
:10236000012E05D9A0202063206801F027FC04E09D
:10237000C4F83080206801F03AFCDFF888A001271B
:1023800030B12268C2F838A0A16B0143A16321E0FB
:102390001D480760E16B40208860E06B00680168C1
:1023A00021F0C00141F04001016022687602B308CB
:1023B00059468032E06BFEF747FC80B12068C16B64
:1023C00021EA0901C1632168C1F838A0A06B40F07F
:1023D0008040A06384F834702563012094E74FF0B7
:1023E000FF30CDE90006CDE90285CDE90457694605
:1023F000206801F016FA002086E70000E33F00089D
:10240000F93E0008FF0540008C85254270B5154651
:102410000E46040003D094F8490010B107E00120F3
:1024200070BD002084F84800204600F01DF804F13B
:1024300008012068FEF71AFA3146A2682068FEF704
:1024400049FAD4E901022946236BFEF7F1F9216824
:10245000A06851F8202042F0010241F8202001201C
:1024600084F84900002070BDFEF738BC7047704703
:1024700070B590F83C20012A32D0012480F83C400D
:10248000022280F83D2003685A689D6822F0700699
:102490000A6832435A60134B02689A4214D0B2F170
:1024A000804F11D0104B9A420ED0104B9A420BD055
:1024B0000F4B9A4208D00F4B9A4205D00E4B9A42CE
:1024C00002D00E4B9A4204D1496825F0800319438B
:1024D000916080F83D40002180F83C10084670BDB6
:1024E000022070BD000001400004004000080040D0
:1024F000000C004000040140004001400018004072
:1025000010B5040003D094F83D0010B107E001209D
:1025100010BD002084F83C00204600F01FF8022087
:1025200084F83D00211D206801F0FEFF012084F8A1
:10253000460084F83E0084F83F0084F8400084F8A8
:10254000410084F8420084F8430084F8440084F891
:10255000450084F83D00002010BD000008B500686B
:102560000B49884212D10B48016841F00401016017
:102570000068002200F00400009005211E20FEF7F4
:10258000A9FDBDE808401E20FEF796BD08BD00006D
:10259000000800404038024090F83D10012901D069
:1025A00001207047022180F83D100168CA6842F09E
:1025B0000102CA6000681149884214D0B0F1804F0E
:1025C00011D00F4988420ED00E4988420BD00E49D7
:1025D000884208D00D49884205D00D49884202D072
:1025E0000C49884204D1816801F00701062903D013
:1025F000016841F0010101600020704700000140C6
:102600000004004000080040000C004000040140AD
:10261000004001400018004070B5044690F83C00AE
:102620000025012817D0012684F83C60022084F898
:102630003D002068826822F0770222F47F428260A7
:102640000868502838D00DDC20284FD005DC90B326
:10265000102811D14AE0022070BD302846D0402811
:102660000AD13BE060282FD070280DD0B0F5805FF4
:1026700003D0B0F5005F12D0012584F83D60002042
:1026800084F83C00284670BDCB68D1E90121206860
:1026900001F0C3FF2068816841F0770109E0CB6851
:1026A000D1E90121206801F0B8FF2068816841F478
:1026B00080418160E1E719E0CA684968206802F05A
:1026C00081F85021206806E0CA684968206802F055
:1026D0008AF86021206801F0AAFFCEE7CA6849683D
:1026E000206802F06FF840212068F4E72268014674
:1026F0001046F0E770472DE9F04104460068C668CF
:1027000005694FF00007A90713D5B10711D5F91EC8
:10271000016101202077206880698007204602D06F
:10272000FFF7E8FF04E000F0A9F8204600F03CF9CC
:102730002777680716D5700714D521686FF0040055
:102740000861022020772068806910F4407F2046CD
:1027500002D0FFF7CFFF04E000F090F8204600F031
:1027600023F92777280715D5300713D521686FF08F
:1027700008000861042020772068C069800720468F
:1027800002D0FFF7B7FF04E000F078F8204600F031
:102790000BF92777E80616D5F00614D521686FF0F7
:1027A00010000861082020772068C06910F4407F7D
:1027B000204602D0FFF79EFF04E000F05FF82046BD
:1027C00000F0F2F82777E80708D0F00706D0216874
:1027D0006FF001000861204600F078F9280608D55E
:1027E000300606D521686FF0800008612046FFF7AB
:1027F0003DFE680608D5700606D521686FF04000DA
:102800000861204600F06CF9A8060AD5B00608D584
:1028100021686FF0200008612046BDE8F041FFF715
:1028200026BEBDE8F081000010B586B00446142134
:102830006846FDF77FFD0E492068884215D10D4896
:102840000021026842F008020260006800F00800FF
:1028500005904FF4805000900220CDE90101CDE9B0
:10286000031069460448FEF78DFA06B010BD00005B
:102870000008004030380240000C0240704770B53C
:10288000044690F83C0000260D4601280FD0012098
:1028900084F83C006AB1042A1DD0082A2FD00C2AE3
:1028A0003FD00126002084F83C00304670BD022055
:1028B00070BD206801F0C4FE2068816941F0080104
:1028C00081612068816921F004018161206881694A
:1028D0002A69114311E0206801F0E2FE2068816955
:1028E00041F4006181612068816921F48061816126
:1028F000206881692A6941EA02218161D2E7206862
:1029000001F004FF2068C16941F00801C16120683D
:10291000C16921F00401C1612068C1692A691143BC
:1029200011E0206801F026FF2068C16941F40061D0
:10293000C1612068C16921F48061C1612068C169F9
:102940002A6941EA0221C161ACE710B5040003D055
:1029500094F83D0010B107E0012010BD002084F87C
:102960003C00204600F01EF8022084F83D00211DA6
:10297000206801F0D9FD012084F8460084F83E006B
:1029800084F83F0084F8400084F8410084F8420055
:1029900084F8430084F8440084F8450084F83D003E
:1029A000002010BD704700000068094988420ED120
:1029B000074834300068B0F5FA7F08D10549088827
:1029C000401E0004000C088001D124F06DBF704748
:1029D00000080040F400002030B500250446022223
:1029E00049B1042912D008294CD094F8410001289B
:1029F00053D0012030BD94F83E000128F9D184F86D
:102A00003E202068C26842F0020209E094F83F00CC
:102A10000128EED184F83F202068C26842F0040209
:102A2000C2600122206801F0EBFD21492068214AA3
:102A3000884201D0904203D1436C43F40043436485
:102A40002068884213D0B0F1804F10D01A498842D4
:102A50000DD01A4988420AD01949884207D09042BD
:102A600005D01849884202D01749884204D18168AC
:102A700001F00701062903D0016841F0010101605E
:102A8000284630BD94F840000128B2D184F8402097
:102A90002068C26842F00802C2E784F841200C298D
:102AA00001D00125ECE72068C26842F01002B7E7C8
:102AB0000000014000040140000400400008004004
:102AC000000C00400040014000180040006803492D
:102AD000884201D1FEF766BA70470000001000403E
:102AE000704738B5044690F84200202801D00220F3
:102AF00038BD61B15AB101202063002060632046D7
:102B000002F026F80028F3D1216B012901D0012021
:102B100038BD21680A684968009121680C3151E884
:102B2000002F42F0100241E80023002BF5D138BD00
:102B300010B504462248844212D100F5F0700021FD
:102B400040F81A1F0922416001811E491C48FFF705
:102B5000C8FF1C4892380068016821F00801016034
:102B600017489038844212D1322100F51670FDF7D3
:102B7000E1FB144931223239A1F51670FFF7B1FF9C
:102B80000F48A8300068016821F0080101600C4876
:102B9000D838844212D1322100F52870FDF7CAFBE3
:102BA000084931223239A1F52870FFF79AFF04480D
:102BB00048300068016821F00801016010BD000084
:102BC0007C0700207609002070470000F8B50168F6
:102BD00004460868CA684B6910F00F0F4FF00005F3
:102BE00059D003F0010602F49077374365D0C1074E
:102BF00005D0D10503D5616C41F001016164410745
:102C000005D5D90703D0616C41F0020161648107E9
:102C100005D5D90703D0616C41F004016164010757
:102C200007D502F02001314303D0616C41F0080167
:102C30006164616C00293AD0800604D5900602D503
:102C4000204601F09DFE20684069616CC0F3801051
:102C5000090700D460B3204601F05DFE206840699A
:102C6000400621D52068143050E8001F21F04001B3
:102C700040E80012002AF5D1E06BA8B16E49016569
:102C8000E06BFDF792FE002811D0E06B016D01B002
:102C9000BDE8F040084783060FD593060DD52046C2
:102CA000BDE8F84001F06CBE2046FFF78DFFF8BD8F
:102CB0002046FFF789FF6564F8BD266B2023012EAF
:102CC0007DD1C6067BD5D60679D5086848680090C0
:102CD00048694FF00206400641D5E16B086840683C
:102CE0000004000CE8D0A28D8242E5D9E085C869D5
:102CF000B0F5807F2DD020680C3050E8001F21F403
:102D0000807140E80012002AF5D12068143050E8A4
:102D1000001F21F0010140E80012002AF5D12068CF
:102D2000143050E8001F21F0400140E80012002A52
:102D3000F5D184F84230256320680C3050E8001F3C
:102D400021F0100140E80012002AF5D1E06BFDF7F8
:102D5000E3FD6663A08DE18D401A81B22AE0A08D6B
:102D6000E18D401A81B2E08D0028A5D00029A3D0C2
:102D700022680C3252E8000F20F4907042E80007FD
:102D8000002FF5D12068143050E8002F22F0010206
:102D900040E80027002FF5D184F8423025632068F1
:102DA0000C3050E8002F22F0100240E80023002BE6
:102DB000F5D166632046FFF7BBFEF8BDFFE70506C9
:102DC0002BD5150629D594F841002128F5D1A06806
:102DD000B0F5805F01D12069B0B1206A411C216249
:102DE000216800784860E08C401E0004000CE084FC
:102DF000E3D12068C16821F08001C1602068C1680A
:102E000041F04001C160D8E7206A0088C0F30800A3
:102E10004860206A801C2062E5E74006CDD5500658
:102E2000CBD5CA68204622F04002CA6084F84130FF
:102E300000F0E0F9C1E700001948000870B504008F
:102E400004D094F84100002510B106E0012070BDC7
:102E500084F84050204600F023F8242084F84100F4
:102E60002068C16821F40051C160204601F0EAFDEC
:102E70002068016921F4904101612068416921F0D5
:102E80002A0141612068C16841F40051C160656454
:102E9000202084F8410084F842006563002070BD62
:102EA0002DE9F04F87B0054614216846FDF742FA38
:102EB0009B499A4ED5F800C0994810390322022345
:102EC000DFF8609200244FF0080BB4451ED105686E
:102ED00045F400250560006800F4002005900868AE
:102EE00040F00100086008688DE81C0000F0010057
:102EF000CDE904B0694603924846FDF743FF00223E
:102F000009213420FEF7E6F8342042E0DFF8188289
:102F1000DFF80CA207270AF1040A4FF48066C445C3
:102F20003CD1DAF800C04CF0100CCAF800C0DAF856
:102F3000000000F010000590086840F001000860F3
:102F40000868694600F0010005904FF4C0608DE804
:102F50001900CDE903274846FDF714FF744F734865
:102F600038607004C7E90104C7E903467C61BC61AD
:102F7000FC613C6238467C62FDF7FCFD08B1FDF760
:102F800032FCEF63002206212520BD63FEF7A2F884
:102F90002520FEF791F807B0BDE8F08FDFF89481A7
:102FA000C4455FD1D0F800C0A2464CF4003CC0F844
:102FB00000C0006800F400300590086840F001008F
:102FC00008600868694600F0010005900C208DE853
:102FD0001900CDE903274846FDF7D4FEDFF85081FC
:102FE000554908F1600840464FF00067C8F80010E6
:102FF000C0E90174C0E90346C8F81440C8F8184095
:10300000C8F81C40C8F82040C8F82440FDF7B2FDBD
:1030100008B1FDF7E8FB464C4748C5F83C80C03492
:103020001830C8F83850C4E900074020A060C4E94F
:1030300003A6C4F814A0C4F818A0C4F81CA0C4F8CF
:1030400020A02046C4F824A0FDF794FD08B1FDF7A8
:10305000CAFBAC63002207212620A563FEF73AF8DD
:10306000262096E7DFF8D480C4451AD1056845F4D8
:1030700080250560006800F480200590086840F015
:10308000020008600868694600F0020005904FF4ED
:1030900040608DE81900CDE903272948FDF772FE4D
:1030A00079E728488445FBD1DAF8007047F020071B
:1030B000CAF80070DAF8000000F0200005900868F7
:1030C00040F0040008600868694600F004000590BC
:1030D000C0208DE81900CDE9032B1B48FDF752FEF7
:1030E00012481A4F183838608005C7E90104C7E94B
:1030F00003467C61BC61FC613C6238467C62FDF742
:1031000039FD08B1FDF76FFBEF630022092147206D
:10311000BD63FDF7DFFF47203BE70000004C0040A8
:10312000403802400000024000100140406402406C
:10313000C40700200044004088600240004800406E
:10314000000402400014014000080240E40800208E
:10315000704770472DE9F843044690F841009846BF
:1031600016460D46202802D00220BDE8F88385B11E
:103170007EB100206064212084F84100FDF70CFF3F
:10318000A6848146E684A0682027B0F5805F02D03F
:1031900003E00120E9E7206910B12E4600250EE08A
:1031A00000260CE08021204601F01AFDA8B9C6B126
:1031B00016F8010B21684860E08C401EE084E08C2A
:1031C0004B464FF00002CDF800800028EAD14FF0C6
:1031D0004001204601F004FD40B184F84170032015
:1031E000C3E735F8020BC0F30800E3E784F8417049
:1031F0000020BAE77047FEE700B587B014216846A3
:10320000FDF798F810480021026842F002020260BF
:10321000006800F0020005904FF44070009001201B
:10322000CDE901010220039069460848FDF7AAFD97
:1032300006481830016841F400710160016841F4EA
:103240008071016007B000BD3038024000040240C8
:103250001D4808B5016841F400110160016801F4DE
:1032600000110091016841F48001016000680022B2
:1032700000F48000009005211020FDF72BFF1020A6
:10328000FDF71AFF002205211120FDF723FF112071
:10329000FDF712FF002205213920FDF71BFF392021
:1032A000FDF70AFF002205213A20FDF713FF3A201F
:1032B000FDF702FF002205213B20FDF70BFFBDE8D3
:1032C00008403B20FDF7F8BE3038024010B50449F5
:1032D0000448FDF78AFA0249491E087010BD000033
:1032E00031030020F83C050810B503F021FE012051
:1032F0002CF0FCF8074C03220021206001202CF068
:1033000000F90549054A08600021054824F096FEA9
:10331000606010BD040000202403002000010308A9
:103320002544000810B58EB01C216846FDF702F850
:103330001C2107A8FCF7FEFF1A484FF0204110227D
:10334000016019494160062181600021C160C0E926
:1033500004128161C16113020162C0E90913930281
:10336000C0E90B134163816341640A230F203C24AD
:103370000093CDE901040DF10C0C11248CE816002A
:103380000691CDE9073009AB83E817000D9107AA34
:1033900069460448FFF73AF8002801D0FDF723FA00
:1033A0000EB010BDC0040020040100A02DE9F04FB4
:1033B00087B014216846FCF7BDFF4F480024016820
:1033C00041F010010160016801F0100105910168F0
:1033D00041F004010160016801F0040105910168F8
:1033E00041F020010160016801F0200105910168B0
:1033F00041F080010160016801F0800105910168E0
:1034000041F001010160016801F0010105910168CD
:1034100041F002010160016801F0020105910168BB
:1034200041F008010160016801F00801059101689F
:1034300041F0400101600068DFF8C09000F04000FA
:103440004FF4C0670590012239464846FDF79FFDBD
:10345000DFF8ACA04FF44058002241465046FDF73B
:1034600096FD0122D60331465046FDF790FDDFF868
:1034700094B0002231465846FDF789FD1020012501
:103480008DE8310069462048FDF77CFCCDE90075E8
:103490000227CDE9024769464846FDF773FCCDF89F
:1034A00000800397CDE9015469465046FDF76AFC58
:1034B0000320CDE90240CDE9006569465046FDF79D
:1034C00061FC4FF488508DE8310069460F48FDF7E4
:1034D00059FC88208DE8310069460D48FDF752FC03
:1034E0000096CDE90154694658460394FDF74AFC1D
:1034F00007B0BDE8F08F00003038024000140240F1
:103500000004024000180240001002400000024087
:10351000000C024030B587B014216846FCF70AFF62
:103520002348002421490594C0E900147F218160CB
:10353000FF21C0E9031444618461FEF7B1F908B1C9
:10354000FDF751F900211A48FEF754F945F2AA5542
:10355000A84228D010208DF800008DF801008DF8C9
:10356000024003940022694611480494FEF74EFA83
:1035700008B1FDF738F901208DF8140004208DF80A
:1035800015008DF8160019208DF81700002205A9E6
:103590000748FEF7EFF908B1FDF725F92A460021A3
:1035A0000348FEF72CF907B030BD000000280040AA
:1035B0001005002006480549016000214160816036
:1035C0000422C160C0E9051201617047002C01406E
:1035D0003005002010B58EB000240794089409949B
:1035E0000A940B941C2168460C94FCF7A3FE1E4819
:1035F0001C490160A721C0E9011440F2E731C0E98C
:1036000003148461FEF77CFF08B1FDF7ECF84FF47A
:103610008050079007A91448FEF7FEFF08B1FDF798
:10362000E2F81148FFF791F908B1FDF7DCF80B94C7
:103630000BA90D480C94FEF71BFF08B1FDF7D3F85A
:103640006020CDE9000402940022694606480494F3
:10365000FFF715F908B1FDF7C6F80348FFF7E4F8DE
:103660000EB010BD00080040140600200C4810B534
:103670000A4901604FF4E1314160002181600C2270
:10368000C160C0E904128161C161FFF7D7FB002866
:1036900003D0BDE81040FDF7A6B810BD004C0040B7
:1036A0005C0600200C4810B50A4901604FF4E13176
:1036B0004160002181600C22C160C0E90412816177
:1036C000C161FFF7BBFB002803D0BDE81040FDF748
:1036D0008AB810BD00100140A40600200C4810B5A7
:1036E0000A4901604FF4E1314160002181600C2200
:1036F000C160C0E904128161C161FFF79FFB00282E
:1037000003D0BDE81040FDF76EB810BD0044004086
:10371000EC0600200C4810B50A4901604FF4E13175
:103720004160002181600C22C160C0E90412816106
:10373000C161FFF783FB002803D0BDE81040FDF70F
:1037400052B810BD00480040340700200C4810B5A6
:103750000A4901604FF4E1314160002181600C228F
:10376000C160C0E904128161C161FFF767FB0028F5
:1037700003D0BDE81040FDF736B810BD001401407D
:103780007C070020FEE7FEE7010901EB810100F064
:103790000F0000EB4100C0B27047002102E00A3880
:1037A000C0B2491C0A28FAD2090740EA11607047E2
:1037B0002DE9F041044600680025C168490618D487
:1037C000C16841F08001C160FDF7E6FB06464FF499
:1037D0007A78042707E000BFFDF7DEFB801B404539
:1037E00001D9677701252068C068400601D4002D03
:1037F000F2D02846BDE8F08170B504460068002587
:10380000C16821F08001C16020688068800606D40C
:103810002046FEF75BF910B10420607701252846A9
:1038200070BD0A6842624A688262D1E902231A4383
:10383000D1E904310B43C16A1A4321F0F701114366
:10384000C16200207047006800F003007047084420
:10385000406970470148FEF7DBBA000030050020E0
:1038600070B50DF1100C11439CE87000234319430F
:1038700029434268314347F6FF639A430A43426053
:10388000002070BD0321016000207047D0F8800047
:1038900070470A688260D1E901231A43D1E90331F4
:1038A0000B43C1681A436FF30B011143C160002041
:1038B00070470968C0F880100020704710B585B0C7
:1038C00004463720CDE900104020029000200390EC
:1038D0004FF48060049069462046FFF7DAFF41F21A
:1038E00088323721204600F09BF905B010BD00005A
:1038F00010B504460A4885B001432920CDE90010DF
:1039000040200290002003904FF4806004906946AC
:103910002046FFF7BEFF204600F03AFA05B010BD82
:103920000000108010B585B004461020CDE90010CD
:1039300040200290002003904FF48060049069467C
:103940002046FFF7A6FF41F288321021204600F002
:1039500067F905B010BD10B585B004460620CDE965
:10396000001040200290002003904FF480600490EB
:1039700069462046FFF78DFF41F288320621204636
:1039800000F04EF905B010BD30B585B000240546F5
:10399000009401944FF480600294CDE9034069469D
:1039A0002846FFF776FF0B484FF4FA510068B0FB4A
:1039B000F1F041F288314843401E03D24FF00040FD
:1039C00005B030BD696B0906F6D5C520A863204651
:1039D000F6E700002000002010B585B004464FF443
:1039E000D5700090082001904020029000200390A4
:1039F0004FF48060049069462046FFF74AFF204656
:103A000000F02CFA05B010BD10B585B004461220A8
:103A1000CDE9001040200290002003904FF4806018
:103A2000049069462046FFF734FF41F288321221A4
:103A3000204600F0F5F805B010BD10B585B004467D
:103A40001120CDE9001040200290002003904FF497
:103A50008060049069462046FFF71BFF41F28832E0
:103A60001121204600F0DCF805B010BD10B585B07E
:103A700004460720CDE9002040200290002003905A
:103A80004FF48060049069462046FFF702FF41F240
:103A900088320721204600F0C3F805B010BD10B5EC
:103AA00085B0044600210220CDE90010C020CDE9F8
:103AB00002014FF48060049069462046FFF7E9FE5A
:103AC000204600F03DF905B010BD10B585B00446A4
:103AD0000920CDE90010C0200290002003904FF48F
:103AE0008060049069462046FFF7D3FE204600F030
:103AF00027F905B010BD10B585B00446002133206C
:103B0000CDE900104020CDE9020100010490694692
:103B10002046FFF7BEFE41F288323321204600F0F6
:103B20007FF805B010BD10B585B004460D20CDE975
:103B3000001040200290002003904FF48060049019
:103B400069462046FFF7A5FE41F288320D21204646
:103B500000F066F805B010BD30B585B00C460546DE
:103B600000210320CDE900104020CDE90201000131
:103B7000049069462846FFF78CFE2246032128461A
:103B800000F028F905B030BD10B585B0044600211D
:103B90000C20CDE900104020CDE902010001049085
:103BA00069462046FFF775FE034A0C21204600F0C7
:103BB00037F805B010BD000000E1F50510B585B07F
:103BC00004461920CDE90010402002900020039007
:103BD0004FF48060049069462046FFF75AFE41F298
:103BE00088321921204600F01BF805B010BD10B531
:103BF00085B004461820CDE9001040200290002036
:103C000003904FF48060049069462046FFF741FE20
:103C100041F288321821204600F002F805B010BDAC
:103C2000454B10B51B684FF4FA54B3FBF4F3534300
:103C30005B1E02D24FF0004010BD426B12F0450FE8
:103C4000F6D01205F4D4426B520703D504218163E8
:103C5000084610BD426BD20702D00121816305E006
:103C6000C52282630269D2B28A4201D0012010BD0E
:103C70000021FFF7ECFD3149084201D1002010BDC1
:103C8000002802DA4FF0007010BD410001D540203D
:103C900010BD810001D5802010BDC10002D54FF4B8
:103CA000807010BD010102D54FF4007010BD4101BC
:103CB00002D54FF4806010BDC10102D54FF4006001
:103CC00010BD010202D54FF4805010BD410202D553
:103CD0004FF4005010BD810202D54FF4804010BD5A
:103CE000C10202D54FF4004010BD410302D54FF48C
:103CF000003010BD810302D54FF4802010BDC103F8
:103D000002D54FF4002010BD010402D54FF48010FD
:103D100010BD410402D54FF4001010BD810402D53E
:103D20004FF4800010BD000702D54FF4000010BD15
:103D30004FF4803010BD00002000002008E0FFFD9F
:103D400012494FF4FA520968B1FBF2F141F288329C
:103D50005143491E02D24FF000407047426B12F0AF
:103D6000450FF6D01205F4D4416B490703D5042161
:103D7000816308467047416BC90703D00121816305
:103D800008467047C521816300207047200000204D
:103D90000F494FF4FA520968B1FBF2F141F288324F
:103DA0005143491E02D24FF000407047426B12F05F
:103DB000450FF6D01205F4D4416B490703D5042111
:103DC000816308467047C521816300207047000069
:103DD0002000002030B5204B4FF4FA541B68B3FB91
:103DE000F4F341F2883463435B1E02D24FF000408B
:103DF00030BD446B14F0450FF6D02405F4D4436B6A
:103E00005B0703D504218163084630BD436BDB07A4
:103E100002D00121816303E00369DBB28B4201D050
:103E2000012030BDC52181630021FFF710FD10F492
:103E3000604F04D0410406D54FF4005030BD000C53
:103E40001080002030BD000402D54FF4805030BDFA
:103E50004FF4803030BD00002000002014494FF4A2
:103E6000FA520968B1FBF2F141F288325143491E1E
:103E700002D24FF000407047426B12F0450FF6D06F
:103E80001205F4D4416B490703D504218163084628
:103E90007047416BC90703D0012181630846704711
:103EA000416B490601D54021816300207047000025
:103EB0002000002010B5064C01202070FCF7BCFB50
:103EC00018B9207820F001002070207810BD000083
:103ED0002803002070B5054623F0E8FF044603E000
:103EE000FCF7AAFB002806D023F0E0FF001BA84245
:103EF000F6D34FF0FF3070BD10B5846BFCF767FD53
:103F0000022828D0206C416DE06B406D012901D062
:103F100001281DD12168104888632068C16B21F4F5
:103F20009D71C163A06B40F08040A0632046FDF707
:103F300059FF062801D0052805D12068FFF724FE87
:103F4000A16B0843A063012084F8340000202063A3
:103F50002046FDF767FE10BDFF05400010B5846BDD
:103F6000206B822809D12068FFF70EFE28B1A16BD3
:103F70000143A1632046FDF755FE2068C16A21F088
:103F80000801C162216840F23A508863012084F838
:103F90003400002020632046FEF7A0F910BD10B5C4
:103FA000846B40F23A50216888632046FDF71AFF7F
:103FB000012184F8341000212163062801D005284E
:103FC00005D12068FFF7E0FDA16B0843A063A06B5B
:103FD0000028204602D0FDF725FE10BDFDF792FD1A
:103FE00010BD806B0068C16B41F48071C163704784
:103FF00010B5846B40F23A50216888632046FDF783
:10400000F1FE012184F8341000212163062801D03B
:10401000052805D12068FFF7B7FDA16B0843A06311
:10402000A06B0028204602D0FDF7FCFD10BDFDF777
:1040300069FD10BD2DE9F04788B00D460446FCF738
:10404000ABFF00268246009601963746082120687D
:10405000FFF768FC00282CD1B4F850000104206858
:10406000FFF72CFC002824D1401E4FF00808CDE9B2
:10407000020830204FF00209CDE904090120CDE902
:10408000067002A92068FFF7CCFB2068FFF733FD1C
:1040900000280ED16F462068416B11F02A0F0BD01B
:1040A000416B090702D4416B89051AD5C0F83880E5
:1040B000082008B0BDE8F087416B890205D5FFF7FD
:1040C000E5FB47F82600761C02E0416B8904E7D542
:1040D000FCF762FFA0EB0A00401CDCD14FF000406F
:1040E000E7E7416B890703D5C0F838900220E0E785
:1040F000416B890603D5202181630846D9E740F248
:104100003A518163019800BA2860009800BA68604B
:104110000020CEE710B590B004460120ADF838007D
:104120002068FFF790FB002854D0606C032842D031
:104130002068FFF7B4FC00284AD100212068FFF76F
:1041400086FB606704212068FFF781FBA0670821D8
:104150002068FFF77CFBE0670C212068FFF777FB06
:10416000C4F88000606C032825D00EA92068FFF7F2
:10417000F3FC00282CD1606C03281CD0BDF838005B
:10418000206501042068FFF7A0FC002820D1002151
:104190002068FFF75CFB606604212068FFF757FB8F
:1041A000A06608212068FFF752FBE0660C2120681A
:1041B000FFF74DFB206704212068FFF748FB000D47
:1041C000E06403A92046FDF72FFD30B14FF0805089
:1041D00010B010BD4FF08060FAE7B4F85000002333
:1041E00002042068FFF742FC0028F1D104F110001E
:1041F00007C88DE8070094E80F00FFF731FB0020A7
:10420000E6E700002DE9F84F002604460096354603
:10421000B0460068FFF7B8FB002827D12068FFF7F9
:10422000DBFB4FF0805B4FF001094FF6FF7748B1A1
:10423000A6642068FFF7A8FB002817D1A06C01280E
:1042400002D020E0C4F8489000212068FFF736FB38
:1042500058B918E000212068FFF730FB002805D18D
:1042600051462068FFF744FB10B15846BDE8F88F6F
:1042700000212068FFF7EBFA05464FEAD078009856
:10428000401C009002E0DFF82CA00098B84202D257
:10429000B8F1000FDED00098B84202D34FF0807022
:1042A000E4E7680002D5C4F8449000E066640020AA
:1042B000DCE70000000010C170B5104C054601207D
:1042C000207023F0E3FD022816D1FCF7C1F918B9DC
:1042D0002846FFF7EFFD2070207801280CD0606899
:1042E00050B9002202210A2023F048FE606018B96C
:1042F000207840F001002070207870BD2803002055
:1043000010B5124888B014460078C00702D00320C8
:1043100008B010BDC1B1012905D0022908D0032978
:104320000CD00420F4E76846FCF780F906980AE010
:104330006846FCF77BF90798208005E06846FCF7A3
:1043400075F90798400A20600020E1E72803002063
:104350002DE9F84347F230541E461746884601259A
:104360002046FFF7B7FD00281EDB3246394640469F
:10437000FCF78EF9C0B90F48234600226946406811
:1043800023F0CAFD80B9BDF8000001280CD123F04C
:104390008DFD064603E000BFFCF74EF938B123F06F
:1043A00085FD801BA042F7D32846BDE8F883002591
:1043B000FAE7000028030020FFF77CBD2DE9F84351
:1043C00047F230541E461746884601252046FFF71F
:1043D00081FD00281EDB324639464046FCF774F961
:1043E000C0B90F48234600226946406823F094FD77
:1043F00080B9BDF8000002280CD123F057FD064615
:1044000003E000BFFCF718F938B123F04FFD801B23
:10441000A042F7D32846BDE8F8830025FAE700005C
:1044200028030020074C4FF4806566152946204676
:10443000FCF7A5FD31462046FCF7A1FDC8202AF077
:10444000EFFDF3E70014024010B54FF0E0200069E3
:104450002BF038FC012803D0BDE810402BF030B819
:1044600010BD000030B593B030216846FBF762FF05
:1044700014210CA8FBF75EFF1F480025016841F0DE
:1044800080510160006800F0805011901B48016865
:1044900041F4804101600068022400F480401190E2
:1044A000052000904FF4803001900120029080059B
:1044B000CDE9064004200890A820CDE90904072092
:1044C0000B906846FCF7E0FF08B172B6FEE70CA956
:1044D0000F2081E831004FF4A0500F904FF480502E
:1044E000109005210CA8FCF7C5FE002801D072B67B
:1044F000FEE713B030BD00004038024000700040BD
:104500000248016841F470010160704788ED00E0E5
:104510000148FEF7F0B80000140600200148FEF73D
:10452000EAB8000080090020F0B50268294C2A4D45
:104530002A4E2B4F2B4B4FF0804CA04209D06045A8
:1045400007D0A84205D0B04203D0B84201D098426B
:1045500004D122F0700E4A6842EA0E02A0421BD03B
:10456000604519D0A84217D0B04215D0B84213D038
:10457000984211D01C4DA8420ED01C4DA8420BD021
:104580001B4DA84208D01B4DA84205D01A4DA84289
:1045900002D01A4DA84203D122F44075CA682A43BA
:1045A0004D6922F080022A4302608A68C2620A686A
:1045B0008262A04201D0984201D1096901630121C0
:1045C00041610169C90703D0016921F0010101615D
:1045D000F0BD000000000140000400400008004061
:1045E000000C004000040140004001400044014034
:1045F0000048014000180040001C0040002000401E
:1046000010B501F01F030121046A99408C43046234
:10461000016A9A401143016210BD10B5846842EAF4
:10462000032224F47F440A432243826010BD82683F
:1046300022F070020A4342F00701816070470000D7
:10464000F0B5036A026A22F00102026242688469DC
:10465000124E24F073050C682C4323F002058B687E
:104660002B430D4DA84201D0B04205D123F00807DD
:10467000CB683B4323F00403A84201D0B04205D1EC
:104680004D6922F4407215438A692A43426084616D
:10469000496841630362F0BD00000140000401402D
:1046A000F0B5026A036A23F0100303624368846969
:1046B0000D6824F4E64444EA05248D6822F02002C3
:1046C00042EA05120F4D104EA84201D0B04206D169
:1046D000CF6822F0800242EA071222F04002A8428C
:1046E00001D0B04207D14D6923F4406343EA85030A
:1046F0008D6943EA8503436084614968816302628E
:10470000F0BD00000000014000040140F0B5026A65
:10471000036A23F4807303624368C46922F400725D
:1047200024F073050C68124E2C438D6842EA052272
:104730000E4DA84201D0B04206D1CF6822F40062EB
:1047400042EA072222F48062A84201D0B04207D197
:104750004D6923F4405343EA05138D6943EA051379
:104760004360C4614968C1630262F0BD000001405A
:104770000004014030B5046A026A22F480520262E9
:104780004268C3690D6823F4E64343EA05238D6854
:1047900024F4005444EA0534084DA84202D0084DE0
:1047A000A84204D14D6922F4804242EA8512426057
:1047B000C36149680164046230BD0000000001402B
:1047C0000004014010B5036A046A24F00104046285
:1047D000846924F0F00444EA021423F00A020A4334
:1047E0008461026210BD10B5036A046A24F01004EB
:1047F0000462846923F0A00324F4704444EA023282
:1048000043EA01118261016210BD00000148FEF718
:10481000DDB900005C06002010B5806B0021C18569
:10482000C184FEF7D1F910BD70B5846B2068406972
:1048300094F84110C0F3C0100025212904D118B10B
:10484000E584204600F08EF82068406994F8421014
:10485000C0F38010222904D118B1E585204600F06C
:104860005AF8606C40F0100060642046FEF7ACF926
:1048700070BD10B50146806B096809684FF00002F1
:10488000C9052ED4C28501680C3151E8003F23F4DC
:10489000807341E80034002CF5D10168143151E8EF
:1048A000003F23F0010341E80034002CF5D10168FA
:1048B000143151E8003F23F0400341E80034002C5C
:1048C000F5D1202180F84210016B012909D101683E
:1048D0000C3151E8003F23F0100341E80034002C74
:1048E000F5D14263016B012902D0FEF731FC10BD06
:1048F000818DFEF71DF910BD10B5806B012141635C
:10490000016B012902D0FEF724FC10BD818D4908FE
:10491000FEF70EF910BD01680C3151E8002F22F4AA
:10492000907241E80023002BF5D10168143151E861
:10493000002F22F0010241E80023002BF5D1016B8A
:10494000012909D101680C3151E8002F22F0100231
:1049500041E80023002BF5D1202180F842100021EE
:104960000163704701680C3151E8002F22F0C0024A
:1049700041E80023002BF5D1202180F84110704739
:1049800008B590F84210222901D0022008BD8268A3
:104990004FF480539A4201D1016921B1816A9A4250
:1049A0001BD04AB10AE00268816A5268C2F3080269
:1049B0000A80816A891C08E0026972B10268526843
:1049C00002F07F020A70816A491C8162C18D491E12
:1049D0000904090CC18503D01BE002685268F1E7A5
:1049E0000168CA6822F02002CA600168CA6822F41D
:1049F0008072CA6001684A6922F001024A6120217E
:104A000080F8421000214163026B012A03D0FEF7B7
:104A10009FFB002008BD016301680C3151E8002FA5
:104A200022F0100241E80023002BF5D101680A684A
:104A3000D20602D50A6849680091818DFEF778F8A0
:104A4000E7E7000070B5044600680169E26821F4F8
:104A50004051114301612169A068E269084361691D
:104A6000114308432168CA6849F20C639A43024320
:104A7000CA6020684169A26921F440711143416113
:104A800031492068884202D03049884202D1FCF77F
:104A9000BBFC01E0FCF7A8FCE269002319216425B6
:104AA0003226B2F5004F626828D0A0FB0101930FB7
:104AB0009200FBF7E7FB0146B0FBF5F06FF0180240
:104AC000504301EB800006EB0010B0FBF5F000F066
:104AD000F002B1FBF5F002EB0012B1FBF5F06FF064
:104AE0001803584301EB800006EB0010B0FBF5F013
:104AF00000F00F0021681044886070BDA0FB010128
:104B000092185B41FBF7BEFB0146B0FBF5F00201DA
:104B1000B1FBF5F06FF01803584301EB800006EB92
:104B2000C000B0FBF5F000F0F80002EB4002B1FB72
:104B3000F5F0584301EB800006EBC000B0FBF5F048
:104B400000F00700D6E7000000100140001401400B
:104B500038B58162044682850020134660642222B3
:104B600084F84220E56B1B4AEA63E56B1A4A2A6423
:104B7000E56B1A4AEA64E26B10650A462168E06B4D
:104B8000091DFCF761F82068016840680090206901
:104B900048B120680C3050E8001F41F4807140E8B3
:104BA0000012002AF5D12068143050E8001F41F0AF
:104BB000010140E80012002AF5D12068143050E8C5
:104BC000001F41F0400140E80012002AF5D100200A
:104BD00038BD000073480008F9480008294800085B
:104BE0002DE9F843984617460D460446089E24E0F2
:104BF000701C22D0FCF7D0F9A0EB0800B0421AD804
:104C0000CEB12068C168490717D5802D15D0402D39
:104C100013D00168C94309070FD401680025406813
:104C200000902046FFF777FE0820606484F840502B
:104C30000120BDE8F8830320FBE72068006835EA1F
:104C4000000004D00020B842D2D00020F1E70120BB
:104C5000F9E700000148FDF7B9BF0000A4060020F5
:104C60000148FDF7B3BF0000EC0600200148FDF746
:104C7000ADBF00007C070020FEE70907090E0028F1
:104C800004DB00F1E02080F80014704700F00F0012
:104C900000F1E02080F8141D704702E008C8121FE0
:104CA00008C1002AFAD170477047002001E001C115
:104CB000121F002AFBD1704770B5044600256FF023
:104CC0002F0608E02068411C2160007805EB850173
:104CD00006EB410145182068007800F004F8002830
:104CE000F0D1284670BD3038092801D8012070471E
:104CF0000020704710B54021074801F0D7F9002285
:104D00000521064821F026FD054CA06002F0F0FACE
:104D10000020207010BD0000489300209973000807
:104D20008C02002070B5B1F90030B2F90040A34206
:104D300000DC23460380B1F90250B2F90240A542DB
:104D400000DD2C464480B1F90460B2F90450AE4253
:104D500000DA35468580B1F90610B2F90620914295
:104D600000DB1146C1800120AB4201DC8C4200DD3A
:104D7000002070BDF8B50D460446B0F90000B1F949
:104D800000101646884247DBB4F90210B5F902203C
:104D9000914241DBB4F90410B5F9042091423BDCA7
:104DA000B4F90610B5F90620914235DC96B3ADF89A
:104DB00000006088ADF8020032466946284600F0DF
:104DC00099F8002827D0A088ADF800006088ADF8D9
:104DD000020032466946284600F08CF800281AD0B6
:104DE0002088ADF80000E088ADF802003246694640
:104DF000284600F07FF800280DD0A088ADF800000C
:104E0000E088ADF8020032466946284600F072F8A4
:104E1000002800D00120F8BD0020F8BDB0F9002026
:104E2000B1F904309A4213DCB0F90420B1F9003032
:104E30009A420DDBB0F90220B1F906309A4207DC44
:104E4000B0F90600B1F90210884201DB0120704779
:104E500000207047F8B50D460446B0F90400B1F9DA
:104E600000101646884243DBB4F90600B5F902107B
:104E700088423DDBB4F90000B5F90410884237DC04
:104E8000B4F90210B5F90620914231DC76B3ADF8E1
:104E900000006088ADF8020032466946284600F0FE
:104EA00029F818BBA088ADF800006088ADF80200B2
:104EB00032466946284600F01DF8B8B92088ADF89A
:104EC0000000E088ADF8020032466946284600F04E
:104ED00011F858B9A088ADF80000E088ADF80200DC
:104EE00032466946284600F005F808B10020F8BDB2
:104EF0000120F8BD2DE9FC4114460E46B1F9002011
:104F0000B0F9001005468A423ADBB5F90400824246
:104F100036DCB6F90270B5F90220974230DBB5F9FC
:104F200006309F422CDC002C75DD401A9A1A401C7A
:104F3000521C00B212B200EBD07002EBD2724010E1
:104F40005210904200DB1046844200DD0446ADF86A
:104F50000010288800222044ADF804006888ADF8CD
:104F60000200688831462044ADF806006846FFF725
:104F7000C1FF40B1BDF804002044ADF804003FE09B
:104F80000020BDE8FC81E8880022001BADF802008B
:104F9000E888ADF8060031466846FFF7ABFF28B158
:104FA000BDF804002044ADF8040011E0A8880022F8
:104FB000001BADF80000A888ADF804003146684633
:104FC000FFF798FF50B1BDF80000001BADF80000DE
:104FD000BDF80200001BADF8020016E06888ADF8CD
:104FE0000200688800222044ADF806003146684679
:104FF000FFF780FF70B1BDF80000001BADF80000A6
:10500000BDF806002044ADF80600314668461EF0A3
:1050100085FDB6E7FFE70120B3E710B5B1F9004021
:10502000B2F900309C4200DA23460380B1F9024015
:10503000B2F902309C4200DA23464380B1F90440C1
:10504000B2F904309C4200DD23468380B1F906109A
:10505000B2F90620914200DC1146C18010BD00006B
:105060002DE9F0418AB0054621F010FB0026A04C46
:10507000074600960DB1E86801E014F013F960608E
:1050800000691EF0E7FC6068406908B11EF0E2FCB0
:105090006068C0691EF0DEFC6068006A1EF0DAFC21
:1050A00060680169F1B31EF081FF1EF0FDFE6068CB
:1050B000B0F8501199B30168097C890715D514F02F
:1050C0004FF9401E05B2606814F004F9401E03B2A7
:1050D0000022114601A8009511F025FF606801A982
:1050E0000268926B516004F04FFD60684FF480716C
:1050F00030301AF053FA6068202100F598701AF0E9
:105100004DFA6068A0F85061384621F0B9FA009075
:1051100060680068436A13B12268009998471AF0E2
:105120007FF800E007E000F02FF900F001F9714D81
:105130006F692FB13FE0A0F850610AB0BDE8F0817F
:1051400019F04DFE18F062FF074600227F211EF085
:1051500075FB13F04FFA0146002238461EF05CFB47
:1051600013F019FD0146002238461EF0F8FB00221C
:10517000032138461EF0D0FB0022032138461EF0E2
:10518000B9FB0022032138461EF0BAFB002203219E
:1051900038461EF0BBFB0022032138461EF0D9FB27
:1051A00055A1384619F09CFD00231A4606213846C1
:1051B0001AF0BCFD6F61286821F062FA4FF496780E
:1051C00040450CD2206841F28831884231D9686864
:1051D000009908446860A868401CA86029E021F094
:1051E00055FA286060684FF47A7140680068B1FB36
:1051F000F0F0696809B901216960A968F1B14FF45B
:105200007A7251436A68B1FBF2F46E60AE60844218
:1052100000D90446286920442861E868401CE860F9
:1052200021F0CAFAC0F16403224634A1384619F0CD
:105230008EFD2F4D08356C6814B137E00446E4E765
:1052400019F0CDFD18F0E2FE044600227F211EF089
:10525000F5FA13F0CFF90146002220461EF0DCFAE1
:1052600013F099FC0146002220461EF078FB002234
:10527000032120461EF050FB0022032120461EF091
:1052800039FB0022032120461EF03AFB00220321B5
:1052900020461EF03BFB18A1204619F021FD0023FB
:1052A0001A46042120461AF041FD6C60286821F05E
:1052B000E7F940457FF641AF21F0E8F9286002A800
:1052C0001AF03EF804990298401A820A514200EB03
:1052D00081206621B0FBF1F39DF821109DF820009C
:1052E000CDE9000109A1204619F031FD25E70000B4
:1052F00030010020B49100203F00000025752046B9
:1053000050530A25752525204350550025752E2517
:1053100075206B422075736564202825642025253F
:10532000290A2564252520667261672E0000000089
:1053300070B50A4D002400BFC4EBC40655F8260022
:1053400008B119F0E1FF05EB86001C211AF026F9DF
:10535000641CE4B2042CEFD370BD0000F89300206D
:10536000084949680AE04A68824202D00A688242D3
:1053700003D10A7E42F001020A7649690029F2D17E
:10538000704700000401002070470000042101481C
:1053900000F08CBE3C9300201C21014800F086BE2A
:1053A000549300202DE9FF5F0446DDE90E0613B992
:1053B000B0F5807F7ED0B6F900504FF0FF376D42D8
:1053C000454307EB25252DB22580B6F902C0CCF167
:1053D000000C0CFB00FC07EB2C273FB26780B6F9F2
:1053E00000C0A1EB0C0141434FF0020C0CEB21215A
:1053F00009B2A180B6F90280A2EB080242430CEB8D
:10540000222000B2E080002B7ED04FF00A0A93FBEE
:10541000FAF5684200EB800003EB400705F1010953
:1054200028B221F0ABFB00900FFA89F021F0A6FB27
:1054300083465A3528B221F0A1FB804609F15A0073
:1054400000B221F09BFB0146009AC7F10A0000FB65
:1054500002F300FB08F00BFB073301FB070193FB92
:10546000FAF291FBFAF04FEA601AB4F90010B4F9BD
:1054700002000AFB01FCCDF80CC05511378805FB72
:1054800010C207EBA2220FFA82F905FB01F2BB461C
:10549000029277880AFB002107EBA1210BB2B4F935
:1054A0000410BE460AFB01FC05FB10C20BEBA22256
:1054B00016B200E02FE005FB01F7CDE9007CB4F95E
:1054C0000680DDF80CC00AFB007005FB18C1DDF892
:1054D00004C0009F05FB18C5029A0AFB087C0AFB62
:1054E00008220BEBA1210EEBAC270EEBA02009B29A
:1054F0000EEBA2220BEBA5250FFA87FC00B212B22D
:105500002DB24F46494500E00EE000DA0F46B542A5
:1055100016DAA84615E000202080491E6080A18090
:10552000521EE280BDE8FF9F32882A4422807288A2
:105530003A44628032881144A180718808444FE067
:10554000B046474504DA4F46494506DA0F4604E0BF
:10555000B54201DA2F4600E0374627804F464945DD
:1055600000DD0F46B54201DDA84600E0B0464745E4
:1055700003DD4D46494505DC01E0B54201DD294624
:1055800000E03146A1809A4201DA154600E01D464E
:10559000844501DA614600E001468D4205DA9A420F
:1055A00001DA114606E0194604E0844501DA614655
:1055B00000E0014661809A4201DD114600E0194693
:1055C000844501DD654600E00546A94205DD9A42B5
:1055D00001DD104604E0184602E0844500DD604627
:1055E000E0809FE72DE9FE4F0446D0F800B0B0F907
:1055F0000800E589081AB4F90A10511AD4E90932E9
:10560000B5F5807F38D0A589ADB3A66B7043451141
:105610004E437011266BE16A06FB05F701FB10771C
:10562000694306FB001003EBA72902EBA02080468C
:105630000612B4F904004FEA2927B8424EDD002FC4
:105640004CDBB4F90610B14248DD002E46DB94F87D
:1056500034104A0745D58A0704F1140322D400FB0D
:10566000067045004FF0020A0BEB05015246184642
:1056700019F04AFF27E00DE0256BE66A05FB00F70D
:1056800006FB1177464305FB016003EBA70902EB1C
:10569000A000CCE7A56B68434D4303EB601902EB18
:1056A0006510C4E700FB067000EB40054FF0030AED
:1056B0000BEB05010222184619F026FFE81C58449E
:1056C00010F8010CA07594F83400C0071FD04FF4F7
:1056D000FC60ADF80000A18A814218D10020BDE82D
:1056E000FE8F32B204F118002369CDE901020025D2
:1056F00039B2AA468B4617F061F90090BDF8000058
:10570000A082DDE90102594617F0F0F8DAE7E07C03
:1057100078B1A4F83C90A4F83E80A4F84070A4F8B6
:105720004260656484F848A02046BDE8FE4F00F062
:1057300002B80120D3E72DE9F04F044690F83C1061
:10574000D0F8009090F83E0087B04FF0FF367029F7
:1057500007DAB4F940203546012A00D5002580310A
:105760000DE0902916DDB4F94020B4F9043001258C
:10577000521C9A4200DB0025A1F27F114942C9B2B6
:105780008846702809DAB4F94210012900D50026AC
:10579000803010E00025FF21F2E790280DDDB4F9FC
:1057A0004210B4F906200126491C914200DB002674
:1057B000A0F27F104042C7B201E00026FF276069D7
:1057C0000090A07D0590002083468246049094F8C6
:1057D0003400400744D594F84810606C11FB050173
:1057E0004944022201A819F08FFEA08894F84810BD
:1057F00010FB01F0616C022206FB0011494403A872
:1058000019F082FEA18894F8480011FB00F1626C47
:1058100006FB012210FB05901118022202A819F0C4
:1058200073FE94F83400800761D594F84800626CE8
:1058300010FB052300EB09010B4413F8013C049312
:10584000A38813FB00F306FB0322114411F801BCEB
:1058500010FB0500111801EB090010F8010C45E0E0
:10586000B4F84000B4F94220284401B204F1180011
:105870008146236917F0A2F80190B4F84200B4F908
:105880004010304402B254F8103F484617F096F8E2
:105890000390608E2368304402B2208E284401B207
:1058A000484617F08BF8029094F82400103C8007CB
:1058B0001DD5B4F9422034F8400F284401B24846BF
:1058C00017F014F804906088B4F90010304402B264
:1058D000484617F00BF883466088304402B234F82B
:1058E0004009284401B2484617F000F8824694F86F
:1058F000340042464546800735D5059810FB08F32D
:105900000499C8F1FF0011FB0031C1F307211BFB13
:1059100008F61AFB0060C0F3072011FB07F3C7F17C
:10592000FF0610FB06331B0AA375022907D80228BD
:1059300003D8002007B0BDE8F08F002702E002285E
:1059400000D8FF270598022800D8002204980228D2
:1059500000D8FF22BBF1020F00D80025BAF1020FD8
:1059600003D8FF2501E0FF20A075EAB1FF2A04D08B
:10597000DDE9000113F084F80090BDB1FF2D17D0D0
:10598000DDE902102A4613F07BF8049097B1FF2F4F
:1059900005D001463A46009813F072F80090BDF821
:1059A0000000A0820120C5E70198E5E70298ECE736
:1059B0000398EAE7BDF81000F3E700002DE9F0478F
:1059C0000446B0F908000A2700026062B4F90A0030
:1059D0000002A062B4F90C1091FBF7F5684200EBED
:1059E000800001EB4006684205F1010800B221F099
:1059F000C5F88246E84300B221F0C0F88146C5F1FF
:105A00005A0000B221F0BAF80546C8F15A0000B2B7
:105A100021F0B4F8C6F10A0101FB0AF3024609FBC2
:105A20000630694390FBF7F002FB061191FBF7F19A
:105A30004011E06248112063A07C17F0D7F894F879
:105A4000341060F3000184F83410A07C17F0BEF825
:105A500094F8341060F3410184F83410A07C0428D9
:105A600024D0052822D0062820D021F0040100BF30
:105A700084F8341021682162A16921F0E00160F30B
:105A80000401A08860F39421E08860F35F51A16174
:105A9000E0894FF4001101EB5001B1FBF0F0A0637D
:105AA000FF20A075208AA082BDE8F08741F00401A4
:105AB000DEE700002DE9F047404E884691463188E8
:105AC000824621B13E483F4C056800200FE000208F
:105AD000BDE8F08700EB400202EBC00205EB820359
